{
  "contractName": "Attestation",
  "abi": [
    {
      "constant": true,
      "inputs": [],
      "name": "getClaimsCount",
      "outputs": [
        {
          "name": "claimsCount",
          "type": "uint256"
        }
      ],
      "payable": false,
      "stateMutability": "view",
      "type": "function"
    },
    {
      "constant": true,
      "inputs": [
        {
          "name": "",
          "type": "uint256"
        }
      ],
      "name": "orgs",
      "outputs": [
        {
          "name": "verified",
          "type": "bool"
        },
        {
          "name": "name",
          "type": "string"
        },
        {
          "name": "registrationNumber",
          "type": "string"
        },
        {
          "name": "uportId",
          "type": "string"
        },
        {
          "name": "owner",
          "type": "address"
        }
      ],
      "payable": false,
      "stateMutability": "view",
      "type": "function"
    },
    {
      "constant": true,
      "inputs": [],
      "name": "getOrgsCount",
      "outputs": [
        {
          "name": "orgsCount",
          "type": "uint256"
        }
      ],
      "payable": false,
      "stateMutability": "view",
      "type": "function"
    },
    {
      "constant": true,
      "inputs": [
        {
          "name": "",
          "type": "uint256"
        }
      ],
      "name": "claims",
      "outputs": [
        {
          "name": "name",
          "type": "string"
        },
        {
          "name": "organisation",
          "type": "address"
        },
        {
          "name": "verified",
          "type": "bool"
        },
        {
          "name": "isPublic",
          "type": "bool"
        },
        {
          "name": "claimant",
          "type": "address"
        },
        {
          "name": "claimantUportId",
          "type": "string"
        },
        {
          "name": "added",
          "type": "uint256"
        },
        {
          "name": "claimantName",
          "type": "string"
        }
      ],
      "payable": false,
      "stateMutability": "view",
      "type": "function"
    },
    {
      "constant": false,
      "inputs": [
        {
          "name": "claimIndex",
          "type": "uint256"
        }
      ],
      "name": "verifyClaim",
      "outputs": [],
      "payable": false,
      "stateMutability": "nonpayable",
      "type": "function"
    },
    {
      "constant": false,
      "inputs": [
        {
          "name": "name",
          "type": "string"
        },
        {
          "name": "claimantName",
          "type": "string"
        },
        {
          "name": "organisation",
          "type": "address"
        },
        {
          "name": "claimant",
          "type": "address"
        },
        {
          "name": "isPublic",
          "type": "bool"
        },
        {
          "name": "claimantUportId",
          "type": "string"
        }
      ],
      "name": "addClaim",
      "outputs": [
        {
          "name": "claimIndex",
          "type": "uint256"
        }
      ],
      "payable": false,
      "stateMutability": "nonpayable",
      "type": "function"
    },
    {
      "constant": false,
      "inputs": [
        {
          "name": "uportId",
          "type": "string"
        },
        {
          "name": "name",
          "type": "string"
        },
        {
          "name": "registrationNumber",
          "type": "string"
        }
      ],
      "name": "addOrganisation",
      "outputs": [
        {
          "name": "orgIndex",
          "type": "uint256"
        }
      ],
      "payable": false,
      "stateMutability": "nonpayable",
      "type": "function"
    },
    {
      "inputs": [],
      "payable": false,
      "stateMutability": "nonpayable",
      "type": "constructor"
    },
    {
      "anonymous": false,
      "inputs": [
        {
          "indexed": true,
          "name": "orgAddress",
          "type": "address"
        },
        {
          "indexed": false,
          "name": "uportId",
          "type": "string"
        },
        {
          "indexed": false,
          "name": "name",
          "type": "string"
        }
      ],
      "name": "OrganisationAdded",
      "type": "event"
    },
    {
      "anonymous": false,
      "inputs": [
        {
          "indexed": true,
          "name": "organisation",
          "type": "address"
        },
        {
          "indexed": true,
          "name": "claimant",
          "type": "address"
        }
      ],
      "name": "ClaimAdded",
      "type": "event"
    }
  ],
  "bytecode": "0x6060604052341561000f57600080fd5b336000806101000a81548173ffffffffffffffffffffffffffffffffffffffff021916908373ffffffffffffffffffffffffffffffffffffffff16021790555061125f8061005e6000396000f300606060405260043610610083576000357c0100000000000000000000000000000000000000000000000000000000900463ffffffff1680633ef8f2ba146100885780634f5c2e6c146100b157806376eb92ab146102ba578063a888c2cd146102e3578063c0d7e2b614610531578063c257173014610554578063c35d337014610694575b600080fd5b341561009357600080fd5b61009b61078b565b6040518082815260200191505060405180910390f35b34156100bc57600080fd5b6100d26004808035906020019091905050610798565b60405180861515151581526020018060200180602001806020018573ffffffffffffffffffffffffffffffffffffffff1673ffffffffffffffffffffffffffffffffffffffff16815260200184810384528881815460018160011615610100020316600290048152602001915080546001816001161561010002031660029004801561019f5780601f106101745761010080835404028352916020019161019f565b820191906000526020600020905b81548152906001019060200180831161018257829003601f168201915b50508481038352878181546001816001161561010002031660029004815260200191508054600181600116156101000203166002900480156102225780601f106101f757610100808354040283529160200191610222565b820191906000526020600020905b81548152906001019060200180831161020557829003601f168201915b50508481038252868181546001816001161561010002031660029004815260200191508054600181600116156101000203166002900480156102a55780601f1061027a576101008083540402835291602001916102a5565b820191906000526020600020905b81548152906001019060200180831161028857829003601f168201915b50509850505050505050505060405180910390f35b34156102c557600080fd5b6102cd610807565b6040518082815260200191505060405180910390f35b34156102ee57600080fd5b6103046004808035906020019091905050610814565b60405180806020018973ffffffffffffffffffffffffffffffffffffffff1673ffffffffffffffffffffffffffffffffffffffff16815260200188151515158152602001871515151581526020018673ffffffffffffffffffffffffffffffffffffffff1673ffffffffffffffffffffffffffffffffffffffff168152602001806020018581526020018060200184810384528c8181546001816001161561010002031660029004815260200191508054600181600116156101000203166002900480156104135780601f106103e857610100808354040283529160200191610413565b820191906000526020600020905b8154815290600101906020018083116103f657829003601f168201915b50508481038352878181546001816001161561010002031660029004815260200191508054600181600116156101000203166002900480156104965780601f1061046b57610100808354040283529160200191610496565b820191906000526020600020905b81548152906001019060200180831161047957829003601f168201915b50508481038252858181546001816001161561010002031660029004815260200191508054600181600116156101000203166002900480156105195780601f106104ee57610100808354040283529160200191610519565b820191906000526020600020905b8154815290600101906020018083116104fc57829003601f168201915b50509b50505050505050505050505060405180910390f35b341561053c57600080fd5b61055260048080359060200190919050506108c2565b005b341561055f57600080fd5b61067e600480803590602001908201803590602001908080601f0160208091040260200160405190810160405280939291908181526020018383808284378201915050505050509190803590602001908201803590602001908080601f0160208091040260200160405190810160405280939291908181526020018383808284378201915050505050509190803573ffffffffffffffffffffffffffffffffffffffff1690602001909190803573ffffffffffffffffffffffffffffffffffffffff16906020019091908035151590602001909190803590602001908201803590602001908080601f01602080910402602001604051908101604052809392919081815260200183838082843782019150505050505091905050610986565b6040518082815260200191505060405180910390f35b341561069f57600080fd5b610775600480803590602001908201803590602001908080601f0160208091040260200160405190810160405280939291908181526020018383808284378201915050505050509190803590602001908201803590602001908080601f0160208091040260200160405190810160405280939291908181526020018383808284378201915050505050509190803590602001908201803590602001908080601f01602080910402602001604051908101604052809392919081815260200183838082843782019150505050505091905050610c0e565b6040518082815260200191505060405180910390f35b6000600280549050905090565b6001818154811015156107a757fe5b90600052602060002090600502016000915090508060000160009054906101000a900460ff16908060010190806002019080600301908060040160009054906101000a900473ffffffffffffffffffffffffffffffffffffffff16905085565b6000600180549050905090565b60028181548110151561082357fe5b906000526020600020906006020160009150905080600001908060010160009054906101000a900473ffffffffffffffffffffffffffffffffffffffff16908060010160149054906101000a900460ff16908060010160159054906101000a900460ff16908060020160009054906101000a900473ffffffffffffffffffffffffffffffffffffffff1690806003019080600401549080600501905088565b60006002828154811015156108d357fe5b906000526020600020906006020190508060010160009054906101000a900473ffffffffffffffffffffffffffffffffffffffff1673ffffffffffffffffffffffffffffffffffffffff163373ffffffffffffffffffffffffffffffffffffffff1614151561094157600080fd5b600015158160010160149054906101000a900460ff16151514151561096557600080fd5b60018160010160146101000a81548160ff0219169083151502179055505050565b6000610990610e95565b87816000018190525085816020019073ffffffffffffffffffffffffffffffffffffffff16908173ffffffffffffffffffffffffffffffffffffffff168152505060008160400190151590811515815250508381606001901515908115158152505084816080019073ffffffffffffffffffffffffffffffffffffffff16908173ffffffffffffffffffffffffffffffffffffffff1681525050828160a00181905250428160c0018181525050868160e00181905250600160028054806001018281610a5c9190610f1d565b916000526020600020906006020160008490919091506000820151816000019080519060200190610a8e929190610f4f565b5060208201518160010160006101000a81548173ffffffffffffffffffffffffffffffffffffffff021916908373ffffffffffffffffffffffffffffffffffffffff16021790555060408201518160010160146101000a81548160ff02191690831515021790555060608201518160010160156101000a81548160ff02191690831515021790555060808201518160020160006101000a81548173ffffffffffffffffffffffffffffffffffffffff021916908373ffffffffffffffffffffffffffffffffffffffff16021790555060a0820151816003019080519060200190610b79929190610f4f565b5060c0820151816004015560e0820151816005019080519060200190610ba0929190610f4f565b5050500391508473ffffffffffffffffffffffffffffffffffffffff168673ffffffffffffffffffffffffffffffffffffffff167f048fb386b60c0381c35ec94e3c4fb28df18491980eb5a75d1a8fa9fa7c4fbd2d60405160405180910390a3819150509695505050505050565b6000610c18610fcf565b600081600001901515908115158152505083816020018190525082816040018190525084816060018190525033816080019073ffffffffffffffffffffffffffffffffffffffff16908173ffffffffffffffffffffffffffffffffffffffff16815250506001808054806001018281610c919190611029565b9160005260206000209060050201600084909190915060008201518160000160006101000a81548160ff0219169083151502179055506020820151816001019080519060200190610ce3929190610f4f565b506040820151816002019080519060200190610d00929190610f4f565b506060820151816003019080519060200190610d1d929190610f4f565b5060808201518160040160006101000a81548173ffffffffffffffffffffffffffffffffffffffff021916908373ffffffffffffffffffffffffffffffffffffffff16021790555050500391503373ffffffffffffffffffffffffffffffffffffffff167fc4ec86da02df194278df461483335e5aa900124a9e37bc7783e6df9f23115f778686604051808060200180602001838103835285818151815260200191508051906020019080838360005b83811015610de8578082015181840152602081019050610dcd565b50505050905090810190601f168015610e155780820380516001836020036101000a031916815260200191505b50838103825284818151815260200191508051906020019080838360005b83811015610e4e578082015181840152602081019050610e33565b50505050905090810190601f168015610e7b5780820380516001836020036101000a031916815260200191505b5094505050505060405180910390a2819150509392505050565b61010060405190810160405280610eaa61105b565b8152602001600073ffffffffffffffffffffffffffffffffffffffff168152602001600015158152602001600015158152602001600073ffffffffffffffffffffffffffffffffffffffff168152602001610f0361105b565b815260200160008152602001610f1761105b565b81525090565b815481835581811511610f4a57600602816006028360005260206000209182019101610f49919061106f565b5b505050565b828054600181600116156101000203166002900490600052602060002090601f016020900481019282601f10610f9057805160ff1916838001178555610fbe565b82800160010185558215610fbe579182015b82811115610fbd578251825591602001919060010190610fa2565b5b509050610fcb919061113c565b5090565b60a060405190810160405280600015158152602001610fec61105b565b8152602001610ff961105b565b815260200161100661105b565b8152602001600073ffffffffffffffffffffffffffffffffffffffff1681525090565b815481835581811511611056576005028160050283600052602060002091820191016110559190611161565b5b505050565b602060405190810160405280600081525090565b61113991905b80821115611135576000808201600061108e91906111eb565b6001820160006101000a81549073ffffffffffffffffffffffffffffffffffffffff02191690556001820160146101000a81549060ff02191690556001820160156101000a81549060ff02191690556002820160006101000a81549073ffffffffffffffffffffffffffffffffffffffff021916905560038201600061111491906111eb565b600482016000905560058201600061112c91906111eb565b50600601611075565b5090565b90565b61115e91905b8082111561115a576000816000905550600101611142565b5090565b90565b6111e891905b808211156111e457600080820160006101000a81549060ff021916905560018201600061119491906111eb565b6002820160006111a491906111eb565b6003820160006111b491906111eb565b6004820160006101000a81549073ffffffffffffffffffffffffffffffffffffffff021916905550600501611167565b5090565b90565b50805460018160011615610100020316600290046000825580601f106112115750611230565b601f01602090049060005260206000209081019061122f919061113c565b5b505600a165627a7a72305820c7c67c2ef1cb8538e643ad948101362e5775f5367c53a0fd2436d1a96211e5eb0029",
  "source": "pragma solidity ^0.4.17;\n\ncontract Attestation {\n\n  address private owner;\n  Organisation[] public orgs;\n  //we need to figure out how one can return a filtered list of claims for someone.\n  Claim[] public claims;\n\n  event OrganisationAdded(address indexed orgAddress, string uportId, string name);\n  event ClaimAdded(address indexed organisation, address indexed claimant);\n\n  struct Organisation {\n    bool verified;\n    string name;\n    string registrationNumber;\n    string uportId;\n    address owner;\n  }\n\n  //too much information, will reduce later once we know what isn't useful.\n  struct Claim {\n    string name;\n    address organisation;\n    bool verified;\n    bool isPublic;\n    address claimant;\n    string claimantUportId;\n    uint added;\n    string claimantName;\n  }\n\n  function addClaim(string name, string claimantName, address organisation, address claimant, bool isPublic, string claimantUportId) public returns (uint claimIndex) {\n    Claim memory claim;\n\n    claim.name = name;\n    claim.organisation = organisation;\n    claim.verified = false;//make sure it's false\n    claim.isPublic = isPublic;\n    claim.claimant = claimant;\n    claim.claimantUportId = claimantUportId;\n    claim.added = block.timestamp;\n    claim.claimantName = claimantName;\n\n    claimIndex = claims.push(claim)-1;\n\n    ClaimAdded(organisation, claimant);\n\n    return claimIndex;\n  }\n\n  function Attestation() public {\n    owner = msg.sender;\n  }\n\n  function addOrganisation(string uportId, string name,string registrationNumber) public returns (uint orgIndex){\n    //require(!organisations[msg.sender]);\n\n    Organisation memory org;\n\n    org.verified=false;\n    org.name= name;\n    org.registrationNumber= registrationNumber;\n    org.uportId = uportId;\n    org.owner = msg.sender;\n\n    orgIndex = orgs.push(org)-1;\n\n    OrganisationAdded(msg.sender, uportId, name);\n\n    return orgIndex;\n\n  }\n\n  function verifyClaim(uint claimIndex) public {\n    Claim claim = claims[claimIndex];\n\n    require(msg.sender == claim.organisation);\n    require(claim.verified == false);\n\n    claim.verified = true;\n  }\n\n  //make this protected by either the claimant or public or organisation\n\n  /* function getClaims(address claimant) returns (uint[10]){ */\n  /*   uint[] memory claimIds = new uint[]; */\n  /*   for (uint i =0; i < getClaimsCount(); i++){ */\n  /*     if (claims[i].claimant == claimant){ */\n  /*       claimIds.push(i); */\n  /*     } */\n  /*   } */\n\n  /*   return claimIds; */\n  /* } */\n\n  function getOrgsCount() public constant returns(uint orgsCount) {\n    return orgs.length;\n  }\n\n  function getClaimsCount() public constant returns(uint claimsCount) {\n    return claims.length;\n  }\n}\n",
  "sourcePath": "/Users/theobohnen/Source/unlocktheblock/website/contracts/Attestations.sol",
  "compiler": {
    "name": "solc",
    "version": "0.4.18+commit.9cf6e910.Emscripten.clang"
  },
  "schemaVersion": "1.0.1",
  "updatedAt": "2018-01-31T15:12:23.737Z"
}