{
  "contractName": "Marketplace",
  "abi": [
    {
      "constant": false,
      "inputs": [
        {
          "name": "jobId",
          "type": "uint256"
        }
      ],
      "name": "requestJob",
      "outputs": [],
      "payable": false,
      "stateMutability": "nonpayable",
      "type": "function"
    },
    {
      "constant": false,
      "inputs": [
        {
          "name": "title",
          "type": "string"
        },
        {
          "name": "description",
          "type": "string"
        },
        {
          "name": "providerName",
          "type": "string"
        },
        {
          "name": "paymentAmountInWei",
          "type": "uint256"
        },
        {
          "name": "providerUportId",
          "type": "string"
        }
      ],
      "name": "addJobOffer",
      "outputs": [
        {
          "name": "jobIndex",
          "type": "uint256"
        }
      ],
      "payable": false,
      "stateMutability": "nonpayable",
      "type": "function"
    },
    {
      "constant": true,
      "inputs": [
        {
          "name": "",
          "type": "uint256"
        }
      ],
      "name": "jobs",
      "outputs": [
        {
          "name": "title",
          "type": "string"
        },
        {
          "name": "description",
          "type": "string"
        },
        {
          "name": "provider",
          "type": "address"
        },
        {
          "name": "providerName",
          "type": "string"
        },
        {
          "name": "providerUportId",
          "type": "string"
        },
        {
          "name": "status",
          "type": "string"
        },
        {
          "name": "created",
          "type": "uint256"
        },
        {
          "name": "paymentAmountInWei",
          "type": "uint256"
        },
        {
          "name": "request",
          "type": "address"
        }
      ],
      "payable": false,
      "stateMutability": "view",
      "type": "function"
    },
    {
      "constant": false,
      "inputs": [
        {
          "name": "jobId",
          "type": "uint256"
        }
      ],
      "name": "acceptJob",
      "outputs": [],
      "payable": true,
      "stateMutability": "payable",
      "type": "function"
    },
    {
      "constant": false,
      "inputs": [
        {
          "name": "jobId",
          "type": "uint256"
        }
      ],
      "name": "finishJob",
      "outputs": [],
      "payable": false,
      "stateMutability": "nonpayable",
      "type": "function"
    },
    {
      "constant": true,
      "inputs": [
        {
          "name": "",
          "type": "uint256"
        },
        {
          "name": "",
          "type": "uint256"
        }
      ],
      "name": "jobRequests",
      "outputs": [
        {
          "name": "requestorAddress",
          "type": "address"
        },
        {
          "name": "requestorName",
          "type": "string"
        },
        {
          "name": "requestorUportId",
          "type": "string"
        }
      ],
      "payable": false,
      "stateMutability": "view",
      "type": "function"
    },
    {
      "constant": true,
      "inputs": [],
      "name": "getJobsCount",
      "outputs": [
        {
          "name": "jobsCount",
          "type": "uint256"
        }
      ],
      "payable": false,
      "stateMutability": "view",
      "type": "function"
    },
    {
      "inputs": [],
      "payable": false,
      "stateMutability": "nonpayable",
      "type": "constructor"
    },
    {
      "anonymous": false,
      "inputs": [
        {
          "indexed": true,
          "name": "id",
          "type": "uint256"
        },
        {
          "indexed": false,
          "name": "title",
          "type": "string"
        }
      ],
      "name": "JobAdded",
      "type": "event"
    },
    {
      "anonymous": false,
      "inputs": [
        {
          "indexed": true,
          "name": "id",
          "type": "uint256"
        }
      ],
      "name": "JobAccepted",
      "type": "event"
    },
    {
      "anonymous": false,
      "inputs": [
        {
          "indexed": true,
          "name": "id",
          "type": "uint256"
        }
      ],
      "name": "JobFinished",
      "type": "event"
    }
  ],
  "bytecode": "0x6060604052341561000f57600080fd5b336000806101000a81548173ffffffffffffffffffffffffffffffffffffffff021916908373ffffffffffffffffffffffffffffffffffffffff1602179055506111c28061005e6000396000f300606060405260043610610082576000357c0100000000000000000000000000000000000000000000000000000000900463ffffffff168062440b311461008757806311f8b8ce146100aa578063180aedf3146101ed57806363b2f3c91461053e5780636e3589a2146105565780639f85840d14610579578063d07e9f90146106f7575b600080fd5b341561009257600080fd5b6100a86004808035906020019091905050610720565b005b34156100b557600080fd5b6101d7600480803590602001908201803590602001908080601f0160208091040260200160405190810160405280939291908181526020018383808284378201915050505050509190803590602001908201803590602001908080601f0160208091040260200160405190810160405280939291908181526020018383808284378201915050505050509190803590602001908201803590602001908080601f0160208091040260200160405190810160405280939291908181526020018383808284378201915050505050509190803590602001909190803590602001908201803590602001908080601f01602080910402602001604051908101604052809392919081815260200183838082843782019150505050505091905050610835565b6040518082815260200191505060405180910390f35b34156101f857600080fd5b61020e6004808035906020019091905050610afb565b6040518080602001806020018a73ffffffffffffffffffffffffffffffffffffffff1673ffffffffffffffffffffffffffffffffffffffff1681526020018060200180602001806020018981526020018881526020018773ffffffffffffffffffffffffffffffffffffffff1673ffffffffffffffffffffffffffffffffffffffff16815260200186810386528f8181546001816001161561010002031660029004815260200191508054600181600116156101000203166002900480156103175780601f106102ec57610100808354040283529160200191610317565b820191906000526020600020905b8154815290600101906020018083116102fa57829003601f168201915b505086810385528e81815460018160011615610100020316600290048152602001915080546001816001161561010002031660029004801561039a5780601f1061036f5761010080835404028352916020019161039a565b820191906000526020600020905b81548152906001019060200180831161037d57829003601f168201915b505086810384528c81815460018160011615610100020316600290048152602001915080546001816001161561010002031660029004801561041d5780601f106103f25761010080835404028352916020019161041d565b820191906000526020600020905b81548152906001019060200180831161040057829003601f168201915b505086810383528b8181546001816001161561010002031660029004815260200191508054600181600116156101000203166002900480156104a05780601f10610475576101008083540402835291602001916104a0565b820191906000526020600020905b81548152906001019060200180831161048357829003601f168201915b505086810382528a8181546001816001161561010002031660029004815260200191508054600181600116156101000203166002900480156105235780601f106104f857610100808354040283529160200191610523565b820191906000526020600020905b81548152906001019060200180831161050657829003601f168201915b50509e50505050505050505050505050505060405180910390f35b6105546004808035906020019091905050610b93565b005b341561056157600080fd5b6105776004808035906020019091905050610ce8565b005b341561058457600080fd5b6105a36004808035906020019091908035906020019091905050610e02565b604051808473ffffffffffffffffffffffffffffffffffffffff1673ffffffffffffffffffffffffffffffffffffffff16815260200180602001806020018381038352858181546001816001161561010002031660029004815260200191508054600181600116156101000203166002900480156106625780601f1061063757610100808354040283529160200191610662565b820191906000526020600020905b81548152906001019060200180831161064557829003601f168201915b50508381038252848181546001816001161561010002031660029004815260200191508054600181600116156101000203166002900480156106e55780601f106106ba576101008083540402835291602001916106e5565b820191906000526020600020905b8154815290600101906020018083116106c857829003601f168201915b50509550505050505060405180910390f35b341561070257600080fd5b61070a610e72565b6040518082815260200191505060405180910390f35b600060018281548110151561073157fe5b90600052602060002090600902019050600073ffffffffffffffffffffffffffffffffffffffff168160080160009054906101000a900473ffffffffffffffffffffffffffffffffffffffff1673ffffffffffffffffffffffffffffffffffffffff161415156107a057600080fd5b338160080160006101000a81548173ffffffffffffffffffffffffffffffffffffffff021916908373ffffffffffffffffffffffffffffffffffffffff1602179055506040805190810160405280600e81526020017f50656e64696e6720416363657074000000000000000000000000000000000000815250816005019080519060200190610830929190610e7f565b505050565b600061083f610eff565b84816060018190525033816040019073ffffffffffffffffffffffffffffffffffffffff16908173ffffffffffffffffffffffffffffffffffffffff1681525050858160200181905250868160000181905250428160c00181815250506040805190810160405280600781526020017f43726561746564000000000000000000000000000000000000000000000000008152508160a00181905250828160800181905250838160e001818152505060018080548060010182816109029190610f96565b916000526020600020906009020160008490919091506000820151816000019080519060200190610934929190610fc8565b506020820151816001019080519060200190610951929190610fc8565b5060408201518160020160006101000a81548173ffffffffffffffffffffffffffffffffffffffff021916908373ffffffffffffffffffffffffffffffffffffffff16021790555060608201518160030190805190602001906109b5929190610fc8565b5060808201518160040190805190602001906109d2929190610fc8565b5060a08201518160050190805190602001906109ef929190610fc8565b5060c0820151816006015560e082015181600701556101008201518160080160006101000a81548173ffffffffffffffffffffffffffffffffffffffff021916908373ffffffffffffffffffffffffffffffffffffffff1602179055505050039150817fd20cd5a820b437a8b626451f79bea6c725fee49b38cec46c1b7eb12b44d40953886040518080602001828103825283818151815260200191508051906020019080838360005b83811015610ab4578082015181840152602081019050610a99565b50505050905090810190601f168015610ae15780820380516001836020036101000a031916815260200191505b509250505060405180910390a28191505095945050505050565b600181815481101515610b0a57fe5b9060005260206000209060090201600091509050806000019080600101908060020160009054906101000a900473ffffffffffffffffffffffffffffffffffffffff16908060030190806004019080600501908060060154908060070154908060080160009054906101000a900473ffffffffffffffffffffffffffffffffffffffff16905089565b6000600182815481101515610ba457fe5b90600052602060002090600902019050806007015434141515610bc657600080fd5b600073ffffffffffffffffffffffffffffffffffffffff168160080160009054906101000a900473ffffffffffffffffffffffffffffffffffffffff1673ffffffffffffffffffffffffffffffffffffffff1614151515610c2657600080fd5b338160080160006101000a81548173ffffffffffffffffffffffffffffffffffffffff021916908373ffffffffffffffffffffffffffffffffffffffff1602179055506040805190810160405280600881526020017f4163636570746564000000000000000000000000000000000000000000000000815250816005019080519060200190610cb6929190610e7f565b50817f41b257db0edd32d58f10d15f1fee2dc582823c2c362ad4dc0f8f0ed4e6f4200060405160405180910390a25050565b6000600182815481101515610cf957fe5b90600052602060002090600902019050600073ffffffffffffffffffffffffffffffffffffffff168160080160009054906101000a900473ffffffffffffffffffffffffffffffffffffffff1673ffffffffffffffffffffffffffffffffffffffff1614151515610d6957600080fd5b8060080160009054906101000a900473ffffffffffffffffffffffffffffffffffffffff1673ffffffffffffffffffffffffffffffffffffffff166108fc82600701549081150290604051600060405180830381858888f193505050501515610dd157600080fd5b817f8f1310e982bd87a5289e7af5f41ea36ca58931c4adee6eac334292cee7a2812b60405160405180910390a25050565b600282815481101515610e1157fe5b906000526020600020900181815481101515610e2957fe5b9060005260206000209060030201600091509150508060000160009054906101000a900473ffffffffffffffffffffffffffffffffffffffff1690806001019080600201905083565b6000600180549050905090565b828054600181600116156101000203166002900490600052602060002090601f016020900481019282601f10610ec057805160ff1916838001178555610eee565b82800160010185558215610eee579182015b82811115610eed578251825591602001919060010190610ed2565b5b509050610efb9190611048565b5090565b61012060405190810160405280610f1461106d565b8152602001610f2161106d565b8152602001600073ffffffffffffffffffffffffffffffffffffffff168152602001610f4b61106d565b8152602001610f5861106d565b8152602001610f6561106d565b81526020016000815260200160008152602001600073ffffffffffffffffffffffffffffffffffffffff1681525090565b815481835581811511610fc357600902816009028360005260206000209182019101610fc29190611081565b5b505050565b828054600181600116156101000203166002900490600052602060002090601f016020900481019282601f1061100957805160ff1916838001178555611037565b82800160010185558215611037579182015b8281111561103657825182559160200191906001019061101b565b5b5090506110449190611048565b5090565b61106a91905b8082111561106657600081600090555060010161104e565b5090565b90565b602060405190810160405280600081525090565b61114b91905b8082111561114757600080820160006110a0919061114e565b6001820160006110b0919061114e565b6002820160006101000a81549073ffffffffffffffffffffffffffffffffffffffff02191690556003820160006110e7919061114e565b6004820160006110f7919061114e565b600582016000611107919061114e565b600682016000905560078201600090556008820160006101000a81549073ffffffffffffffffffffffffffffffffffffffff021916905550600901611087565b5090565b90565b50805460018160011615610100020316600290046000825580601f106111745750611193565b601f0160209004906000526020600020908101906111929190611048565b5b505600a165627a7a72305820deb269520fd4f7b5283a4f793dc96336e37ac751ed81be1b74780bde21c1d8c30029",
  "source": "pragma solidity ^0.4.17;\n\ncontract Marketplace {\n\n  address owner;\n  JobOffer[] public jobs;\n  JobRequest[][] public jobRequests;\n  //mapping (uint => JobRequest[]) public jobRequests;\n  //mapping (uint => uint) jobRequestCount;\n\n  event JobAdded(uint indexed id, string title);\n  event JobAccepted(uint indexed id);\n  event JobFinished(uint indexed id);\n\n  struct JobRequest {\n    address requestorAddress;\n    string requestorName;\n    string requestorUportId;\n  }\n\n  struct JobOffer {\n    string title;\n    string description;\n    address provider;\n    string providerName;\n    string providerUportId;\n    string status;\n    uint created;\n    uint paymentAmountInWei;\n    address request;\n  }\n\n  function addJobOffer(string title, string description, string providerName, uint paymentAmountInWei, string providerUportId) public returns (uint jobIndex) {\n    JobOffer memory jobOffer;\n\n    jobOffer.providerName = providerName;\n    jobOffer.provider = msg.sender;\n    jobOffer.description = description;\n    jobOffer.title = title;\n    jobOffer.created = block.timestamp;\n    jobOffer.status = \"Created\";\n    jobOffer.providerUportId = providerUportId;\n    jobOffer.paymentAmountInWei = paymentAmountInWei;\n\n    jobIndex = jobs.push(jobOffer)-1;\n\n    JobAdded(jobIndex, title);\n\n    return jobIndex;\n  }\n\n  function requestJob(uint jobId) public {\n    JobOffer job = jobs[jobId];\n\n    require(job.request == 0x0000000000000000000000000000000000000000);\n\n    job.request = msg.sender;\n    job.status = \"Pending Accept\";\n\n  }\n\n  function acceptJob(uint jobId) public payable {\n    JobOffer job = jobs[jobId];\n\n    require(msg.value == job.paymentAmountInWei);\n    require(job.request != 0x0000000000000000000000000000000000000000);\n\n    job.request = msg.sender;\n    job.status = \"Accepted\";\n    JobAccepted(jobId);\n  }\n\n  function finishJob(uint jobId){\n    JobOffer job = jobs[jobId];\n\n    //require(StringUtils.equal(job.status,\"Accepted\"));\n    require(job.request != 0x0000000000000000000000000000000000000000);\n\n    job.request.transfer(job.paymentAmountInWei);\n    JobFinished(jobId);\n  }\n\n  function Marketplace() public {\n    owner = msg.sender;\n  }\n\n  function getJobsCount() public constant returns(uint jobsCount) {\n    return jobs.length;\n  }\n}\n",
  "sourcePath": "/Users/theobohnen/Source/unlocktheblock/website/contracts/Marketplace.sol",
  "compiler": {
    "name": "solc",
    "version": "0.4.18+commit.9cf6e910.Emscripten.clang"
  },
  "schemaVersion": "1.0.1",
  "updatedAt": "2018-01-31T23:50:52.190Z"
}