{
  "contractName": "StokBlok",
  "abi": [
    {
      "constant": false,
      "inputs": [
        {
          "name": "participants",
          "type": "address[10]"
        },
        {
          "name": "amount",
          "type": "uint256"
        },
        {
          "name": "mode",
          "type": "uint8"
        }
      ],
      "name": "createStokvel",
      "outputs": [
        {
          "name": "",
          "type": "address"
        }
      ],
      "payable": true,
      "stateMutability": "payable",
      "type": "function"
    },
    {
      "constant": true,
      "inputs": [
        {
          "name": "",
          "type": "uint256"
        }
      ],
      "name": "children",
      "outputs": [
        {
          "name": "",
          "type": "address"
        }
      ],
      "payable": false,
      "stateMutability": "view",
      "type": "function"
    },
    {
      "payable": true,
      "stateMutability": "payable",
      "type": "fallback"
    }
  ],
  "bytecode": "0x6060604052341561000f57600080fd5b610a598061001e6000396000f30060606040526004361061004c576000357c0100000000000000000000000000000000000000000000000000000000900463ffffffff1680635d282cd21461005d5780637002ce42146100ee575b60003411151561005b57600080fd5b005b6100ac600480806101400190600a806020026040519081016040528092919082600a6020028082843782019150505050509190803590602001909190803560ff16906020019091905050610151565b604051808273ffffffffffffffffffffffffffffffffffffffff1673ffffffffffffffffffffffffffffffffffffffff16815260200191505060405180910390f35b34156100f957600080fd5b61010f600480803590602001909190505061022b565b604051808273ffffffffffffffffffffffffffffffffffffffff1673ffffffffffffffffffffffffffffffffffffffff16815260200191505060405180910390f35b60008084848461015f61026a565b8084600a60200280838360005b8381101561018757808201518184015260208101905061016c565b505050509050018381526020018260ff1660ff1681526020019350505050604051809103906000f08015156101bb57600080fd5b9050600080548060010182816101d1919061027a565b9160005260206000209001600083909190916101000a81548173ffffffffffffffffffffffffffffffffffffffff021916908373ffffffffffffffffffffffffffffffffffffffff16021790555050809150509392505050565b60008181548110151561023a57fe5b90600052602060002090016000915054906101000a900473ffffffffffffffffffffffffffffffffffffffff1681565b604051610762806102cc83390190565b8154818355818115116102a1578183600052602060002091820191016102a091906102a6565b5b505050565b6102c891905b808211156102c45760008160009055506001016102ac565b5090565b9056006060604052341561000f57600080fd5b6040516101808061076283398101604052809081610140018051906020019091908051906020019091905050600082600581905550600090505b600a8110156100b6576000600460008684600a8110151561006657fe5b602002015173ffffffffffffffffffffffffffffffffffffffff1673ffffffffffffffffffffffffffffffffffffffff168152602001908152602001600020819055508080600101915050610049565b6000808190555060006001819055508160ff1660038190555050505050610680806100e26000396000f30060606040526004361061006d576000357c0100000000000000000000000000000000000000000000000000000000900463ffffffff1680630485201f146101c957806305726003146101f257806327e235e31461023f5780632e1a7d4d1461028c5780636a9852b1146102af575b6000803411151561007d57600080fd5b600460003373ffffffffffffffffffffffffffffffffffffffff1673ffffffffffffffffffffffffffffffffffffffff16815260200190815260200160002054905034600460003373ffffffffffffffffffffffffffffffffffffffff1673ffffffffffffffffffffffffffffffffffffffff168152602001908152602001600020600082825401925050819055507f15dbc09ffdad47ba663443afbcd33367b3024cadf44d623be45844ca8fe4a3a281600460003373ffffffffffffffffffffffffffffffffffffffff1673ffffffffffffffffffffffffffffffffffffffff168152602001908152602001600020543433604051808581526020018481526020018381526020018273ffffffffffffffffffffffffffffffffffffffff1673ffffffffffffffffffffffffffffffffffffffff16815260200194505050505060405180910390a150005b34156101d457600080fd5b6101dc6102d8565b6040518082815260200191505060405180910390f35b34156101fd57600080fd5b610229600480803573ffffffffffffffffffffffffffffffffffffffff16906020019091905050610379565b6040518082815260200191505060405180910390f35b341561024a57600080fd5b610276600480803573ffffffffffffffffffffffffffffffffffffffff169060200190919050506103c2565b6040518082815260200191505060405180910390f35b341561029757600080fd5b6102ad60048080359060200190919050506103da565b005b34156102ba57600080fd5b6102c2610637565b6040518082815260200191505060405180910390f35b60007f2d720cd84b43cdfb8b2f745d7654978fb4fa43f48bcd2a329f39430045527462303073ffffffffffffffffffffffffffffffffffffffff1631604051808373ffffffffffffffffffffffffffffffffffffffff1673ffffffffffffffffffffffffffffffffffffffff1681526020018281526020019250505060405180910390a13073ffffffffffffffffffffffffffffffffffffffff1631905090565b6000600460008373ffffffffffffffffffffffffffffffffffffffff1673ffffffffffffffffffffffffffffffffffffffff168152602001908152602001600020549050919050565b60046020528060005260406000206000915090505481565b6103e2610640565b81600460003373ffffffffffffffffffffffffffffffffffffffff1673ffffffffffffffffffffffffffffffffffffffff16815260200190815260200160002054111561054857606060405190810160405280602581526020017f46756e647320417661696c69626c652c2077697468647261772073756363657381526020017f7366756c20000000000000000000000000000000000000000000000000000000815250905081600460003373ffffffffffffffffffffffffffffffffffffffff1673ffffffffffffffffffffffffffffffffffffffff1681526020019081526020016000205403600460003373ffffffffffffffffffffffffffffffffffffffff1673ffffffffffffffffffffffffffffffffffffffff168152602001908152602001600020819055503373ffffffffffffffffffffffffffffffffffffffff166108fc839081150290604051600060405180830381858888f1935050505050610581565b6040805190810160405280601c81526020017f46756e647320746f6f206c6f772063616e27742077697468647261770000000081525090505b7f1d895a10a1bf2b6200de4f7c46b0e8cca0f09e360f429bb0842ee5d2b34c12b1600460003373ffffffffffffffffffffffffffffffffffffffff1673ffffffffffffffffffffffffffffffffffffffff168152602001908152602001600020548333604051808481526020018381526020018273ffffffffffffffffffffffffffffffffffffffff1673ffffffffffffffffffffffffffffffffffffffff168152602001935050505060405180910390a15050565b6000600c905090565b6020604051908101604052806000815250905600a165627a7a72305820270f4d0ddf48d4abbcfd66c49d70f8cb791146739a54c599accef76622b18d1f0029a165627a7a7230582013b147ad20a1b3639920684e9395491aa04f7c728c59a032a7d833e2cd1725ce0029",
  "source": "pragma solidity ^0.4.18;\n\nimport \"./StokVel.sol\";\n\ncontract StokBlok {\n\n    // CONSTRUCTOR\n\n    //VARIABLES\n    address[] public children;\n\n    //FUNCTIONS\n    function createStokvel(address[10] memory participants, uint amount, uint8 mode) public payable returns(StokVel) {\n        //add address to child list?\n\n        StokVel stok =  new StokVel(participants, amount, mode);\n        children.push(address(stok));\n        return stok;\n        // children.push(address(new StokVel(participants, contribution_size, mode)));\n        // return children[children.length-1];\n        //Return Address of contract\n    }\n\n    function() public payable { \n\n        require(msg.value > 0);\n        // msg.sender.transfer(msg.value);\n    }\n\n}",
  "sourcePath": "/home/charles/unlockTheBlock/tutorialtoken/contracts/StokBlok.sol",
  "compiler": {
    "name": "solc",
    "version": "0.4.18+commit.9cf6e910.Emscripten.clang"
  },
  "schemaVersion": "1.0.1",
  "updatedAt": "2018-01-31T20:23:43.379Z"
}