{
  "contractName": "StokVel",
  "abi": [
    {
      "constant": true,
      "inputs": [],
      "name": "getTheBalance",
      "outputs": [
        {
          "name": "",
          "type": "uint256"
        }
      ],
      "payable": false,
      "stateMutability": "view",
      "type": "function"
    },
    {
      "constant": true,
      "inputs": [
        {
          "name": "addr",
          "type": "address"
        }
      ],
      "name": "getPersonBalance",
      "outputs": [
        {
          "name": "",
          "type": "uint256"
        }
      ],
      "payable": false,
      "stateMutability": "view",
      "type": "function"
    },
    {
      "constant": true,
      "inputs": [
        {
          "name": "",
          "type": "address"
        }
      ],
      "name": "balances",
      "outputs": [
        {
          "name": "",
          "type": "uint256"
        }
      ],
      "payable": false,
      "stateMutability": "view",
      "type": "function"
    },
    {
      "constant": false,
      "inputs": [
        {
          "name": "amountRequested",
          "type": "uint256"
        }
      ],
      "name": "withdraw",
      "outputs": [],
      "payable": false,
      "stateMutability": "nonpayable",
      "type": "function"
    },
    {
      "constant": true,
      "inputs": [],
      "name": "freebie",
      "outputs": [
        {
          "name": "",
          "type": "uint256"
        }
      ],
      "payable": false,
      "stateMutability": "view",
      "type": "function"
    },
    {
      "inputs": [
        {
          "name": "participantAdresses",
          "type": "address[10]"
        },
        {
          "name": "amount",
          "type": "uint256"
        },
        {
          "name": "mode",
          "type": "uint8"
        }
      ],
      "payable": false,
      "stateMutability": "nonpayable",
      "type": "constructor"
    },
    {
      "payable": true,
      "stateMutability": "payable",
      "type": "fallback"
    },
    {
      "anonymous": false,
      "inputs": [
        {
          "indexed": false,
          "name": "wor",
          "type": "string"
        }
      ],
      "name": "Withdraw",
      "type": "event"
    },
    {
      "anonymous": false,
      "inputs": [
        {
          "indexed": false,
          "name": "balance",
          "type": "uint256"
        },
        {
          "indexed": false,
          "name": "requested",
          "type": "uint256"
        },
        {
          "indexed": false,
          "name": "sender",
          "type": "address"
        }
      ],
      "name": "Values",
      "type": "event"
    },
    {
      "anonymous": false,
      "inputs": [
        {
          "indexed": false,
          "name": "contractAddress",
          "type": "address"
        },
        {
          "indexed": false,
          "name": "balance",
          "type": "uint256"
        }
      ],
      "name": "getContractBalance",
      "type": "event"
    },
    {
      "anonymous": false,
      "inputs": [
        {
          "indexed": false,
          "name": "before",
          "type": "uint256"
        },
        {
          "indexed": false,
          "name": "fter",
          "type": "uint256"
        },
        {
          "indexed": false,
          "name": "value",
          "type": "uint256"
        },
        {
          "indexed": false,
          "name": "sender",
          "type": "address"
        }
      ],
      "name": "Test",
      "type": "event"
    }
  ],
  "bytecode": "0x6060604052341561000f57600080fd5b6040516101808061076283398101604052809081610140018051906020019091908051906020019091905050600082600581905550600090505b600a8110156100b6576000600460008684600a8110151561006657fe5b602002015173ffffffffffffffffffffffffffffffffffffffff1673ffffffffffffffffffffffffffffffffffffffff168152602001908152602001600020819055508080600101915050610049565b6000808190555060006001819055508160ff1660038190555050505050610680806100e26000396000f30060606040526004361061006d576000357c0100000000000000000000000000000000000000000000000000000000900463ffffffff1680630485201f146101c957806305726003146101f257806327e235e31461023f5780632e1a7d4d1461028c5780636a9852b1146102af575b6000803411151561007d57600080fd5b600460003373ffffffffffffffffffffffffffffffffffffffff1673ffffffffffffffffffffffffffffffffffffffff16815260200190815260200160002054905034600460003373ffffffffffffffffffffffffffffffffffffffff1673ffffffffffffffffffffffffffffffffffffffff168152602001908152602001600020600082825401925050819055507f15dbc09ffdad47ba663443afbcd33367b3024cadf44d623be45844ca8fe4a3a281600460003373ffffffffffffffffffffffffffffffffffffffff1673ffffffffffffffffffffffffffffffffffffffff168152602001908152602001600020543433604051808581526020018481526020018381526020018273ffffffffffffffffffffffffffffffffffffffff1673ffffffffffffffffffffffffffffffffffffffff16815260200194505050505060405180910390a150005b34156101d457600080fd5b6101dc6102d8565b6040518082815260200191505060405180910390f35b34156101fd57600080fd5b610229600480803573ffffffffffffffffffffffffffffffffffffffff16906020019091905050610379565b6040518082815260200191505060405180910390f35b341561024a57600080fd5b610276600480803573ffffffffffffffffffffffffffffffffffffffff169060200190919050506103c2565b6040518082815260200191505060405180910390f35b341561029757600080fd5b6102ad60048080359060200190919050506103da565b005b34156102ba57600080fd5b6102c2610637565b6040518082815260200191505060405180910390f35b60007f2d720cd84b43cdfb8b2f745d7654978fb4fa43f48bcd2a329f39430045527462303073ffffffffffffffffffffffffffffffffffffffff1631604051808373ffffffffffffffffffffffffffffffffffffffff1673ffffffffffffffffffffffffffffffffffffffff1681526020018281526020019250505060405180910390a13073ffffffffffffffffffffffffffffffffffffffff1631905090565b6000600460008373ffffffffffffffffffffffffffffffffffffffff1673ffffffffffffffffffffffffffffffffffffffff168152602001908152602001600020549050919050565b60046020528060005260406000206000915090505481565b6103e2610640565b81600460003373ffffffffffffffffffffffffffffffffffffffff1673ffffffffffffffffffffffffffffffffffffffff16815260200190815260200160002054111561054857606060405190810160405280602581526020017f46756e647320417661696c69626c652c2077697468647261772073756363657381526020017f7366756c20000000000000000000000000000000000000000000000000000000815250905081600460003373ffffffffffffffffffffffffffffffffffffffff1673ffffffffffffffffffffffffffffffffffffffff1681526020019081526020016000205403600460003373ffffffffffffffffffffffffffffffffffffffff1673ffffffffffffffffffffffffffffffffffffffff168152602001908152602001600020819055503373ffffffffffffffffffffffffffffffffffffffff166108fc839081150290604051600060405180830381858888f1935050505050610581565b6040805190810160405280601c81526020017f46756e647320746f6f206c6f772063616e27742077697468647261770000000081525090505b7f1d895a10a1bf2b6200de4f7c46b0e8cca0f09e360f429bb0842ee5d2b34c12b1600460003373ffffffffffffffffffffffffffffffffffffffff1673ffffffffffffffffffffffffffffffffffffffff168152602001908152602001600020548333604051808481526020018381526020018273ffffffffffffffffffffffffffffffffffffffff1673ffffffffffffffffffffffffffffffffffffffff168152602001935050505060405180910390a15050565b6000600c905090565b6020604051908101604052806000815250905600a165627a7a72305820270f4d0ddf48d4abbcfd66c49d70f8cb791146739a54c599accef76622b18d1f0029",
  "source": "pragma solidity ^0.4.18;\n\ncontract StokVel {\n\n    //STRUCTS\n\n    //VARIABLES\n    // Person[] public people;\n    //event NewPerson(uint uId, string idNum, uint balance);\n\n    uint totalBalance;\n    uint week;\n    uint contribution_period;\n    uint contractMode;\n    mapping (address => uint) public balances;\n    uint exactAmount;\n\n    // CONSTRUCTOR\n    function StokVel(address[10] memory participantAdresses, uint amount, uint8 mode) public {\n        // Size is the number of people on the StockVel\n        // MODE : 0 - INSURANCE MODE\n        // MODE : 1 - ROUND ROBIN MODE\n        exactAmount = amount;\n        for(uint i =0; i < participantAdresses.length;i++) {\n            balances[participantAdresses[i]] = 0;\n        }\n        totalBalance = 0;\n        week = 0;\n        contractMode = mode;\n    }\n\n    //FUNCTIONS\n    //FUNCTIONS\n    //FUNCTIONS\n    function getPersonBalance(address addr) public view returns (uint) {\n        // return balances[msg.sender];\n        return balances[addr];\n    }\n\n    event Withdraw (string wor);\n    event Values (uint balance, uint requested, address sender);\n\n    function withdraw(uint amountRequested) public { \n        string memory message;\n        \n        if(balances[msg.sender]>amountRequested) {\n            message = \"Funds Availible, withdraw successful \";\n            balances[msg.sender] = balances[msg.sender] - amountRequested;\n\n            msg.sender.send(amountRequested);\n        } else {\n            message = \"Funds too low can't withdraw\";\n        }\n        \n        Values(balances[msg.sender], amountRequested, msg.sender );\n\n        // Withdraw(message);\n    }\n\n    event getContractBalance(address contractAddress, uint balance);\n    function getTheBalance() public view returns (uint) {\n        getContractBalance(this, this.balance);\n        return this.balance;\n    }\n    \n    function freebie() public view returns (uint) {\n        return 12;\n    }\n\n\n    event Test (uint before, uint fter, uint value, address sender);\n\n    function() public payable {\n        require(msg.value>0);\n\n        uint before = balances[msg.sender]; \n        balances[msg.sender]+= msg.value;\n        // to get contract address, this\n        \n        Test(before, balances[msg.sender],msg.value,msg.sender);\n    }\n\n}",
  "sourcePath": "/home/charles/unlockTheBlock/tutorialtoken/contracts/StokVel.sol",
  "compiler": {
    "name": "solc",
    "version": "0.4.18+commit.9cf6e910.Emscripten.clang"
  },
  "schemaVersion": "1.0.1",
  "updatedAt": "2018-01-31T20:23:43.381Z"
}