{
  "contractName": "CustomOwnables",
  "abi": [
    {
      "constant": false,
      "inputs": [
        {
          "name": "_localGvtAddress",
          "type": "address"
        }
      ],
      "name": "setLocalGvtAddress",
      "outputs": [],
      "payable": false,
      "stateMutability": "nonpayable",
      "type": "function"
    },
    {
      "constant": true,
      "inputs": [],
      "name": "bank",
      "outputs": [
        {
          "name": "",
          "type": "address"
        }
      ],
      "payable": false,
      "stateMutability": "view",
      "type": "function"
    },
    {
      "constant": true,
      "inputs": [],
      "name": "localGvt",
      "outputs": [
        {
          "name": "",
          "type": "address"
        }
      ],
      "payable": false,
      "stateMutability": "view",
      "type": "function"
    },
    {
      "constant": false,
      "inputs": [
        {
          "name": "_bankAddress",
          "type": "address"
        }
      ],
      "name": "setBankAddress",
      "outputs": [],
      "payable": false,
      "stateMutability": "nonpayable",
      "type": "function"
    }
  ],
  "bytecode": "0x6060604052341561000f57600080fd5b6102818061001e6000396000f300606060405260043610610062576000357c0100000000000000000000000000000000000000000000000000000000900463ffffffff16806361e658f41461006757806376cdb03b146100a0578063f91dfe45146100f5578063fc3c0eee1461014a575b600080fd5b341561007257600080fd5b61009e600480803573ffffffffffffffffffffffffffffffffffffffff16906020019091905050610183565b005b34156100ab57600080fd5b6100b36101c7565b604051808273ffffffffffffffffffffffffffffffffffffffff1673ffffffffffffffffffffffffffffffffffffffff16815260200191505060405180910390f35b341561010057600080fd5b6101086101ec565b604051808273ffffffffffffffffffffffffffffffffffffffff1673ffffffffffffffffffffffffffffffffffffffff16815260200191505060405180910390f35b341561015557600080fd5b610181600480803573ffffffffffffffffffffffffffffffffffffffff16906020019091905050610212565b005b80600160006101000a81548173ffffffffffffffffffffffffffffffffffffffff021916908373ffffffffffffffffffffffffffffffffffffffff16021790555050565b6000809054906101000a900473ffffffffffffffffffffffffffffffffffffffff1681565b600160009054906101000a900473ffffffffffffffffffffffffffffffffffffffff1681565b806000806101000a81548173ffffffffffffffffffffffffffffffffffffffff021916908373ffffffffffffffffffffffffffffffffffffffff160217905550505600a165627a7a723058207a660ec3a2dadf4881902534f34270c5f8305ebb55285d83c1c48b872ada91f00029",
  "source": "pragma solidity ^0.4.18;\n\ncontract CustomOwnables {\n  address public bank;\n  address public localGvt;\n\n  function setBankAddress(address _bankAddress) public {\n    bank = _bankAddress;\n  }\n\n  function setLocalGvtAddress(address _localGvtAddress) public {\n    localGvt = _localGvtAddress;\n  }\n    /**\n    * @dev Throws if called by any account other than the bank.\n    * only the bank can tokenise, delay token expiry and burn tokens\n    */\n    modifier onlyBank() {\n        require(msg.sender == bank);\n        _;\n    }\n\n    /**\n    * @dev Throws if called by any account other than local government.\n    * only local government can manage refugee details\n    */\n    modifier onlyLocalGvt() {\n        require(msg.sender == localGvt);\n        _;\n    }\n}",
  "sourcePath": "/home/fadzi/hackathon/contracts/CustomOwnables.sol",
  "compiler": {
    "name": "solc",
    "version": "0.4.18+commit.9cf6e910.Emscripten.clang"
  },
  "schemaVersion": "1.0.1",
  "updatedAt": "2018-01-31T09:49:48.551Z"
}