{
  "contractName": "LocalGvt",
  "abi": [
    {
      "constant": true,
      "inputs": [],
      "name": "registerRefugee",
      "outputs": [],
      "payable": false,
      "stateMutability": "view",
      "type": "function"
    },
    {
      "constant": true,
      "inputs": [],
      "name": "updateRefugee",
      "outputs": [],
      "payable": false,
      "stateMutability": "view",
      "type": "function"
    },
    {
      "constant": false,
      "inputs": [
        {
          "name": "_localGvtAddress",
          "type": "address"
        }
      ],
      "name": "setLocalGvtAddress",
      "outputs": [],
      "payable": false,
      "stateMutability": "nonpayable",
      "type": "function"
    },
    {
      "constant": true,
      "inputs": [],
      "name": "bank",
      "outputs": [
        {
          "name": "",
          "type": "address"
        }
      ],
      "payable": false,
      "stateMutability": "view",
      "type": "function"
    },
    {
      "constant": true,
      "inputs": [],
      "name": "deregisterRefugee",
      "outputs": [],
      "payable": false,
      "stateMutability": "view",
      "type": "function"
    },
    {
      "constant": true,
      "inputs": [],
      "name": "localGvt",
      "outputs": [
        {
          "name": "",
          "type": "address"
        }
      ],
      "payable": false,
      "stateMutability": "view",
      "type": "function"
    },
    {
      "constant": false,
      "inputs": [
        {
          "name": "_bankAddress",
          "type": "address"
        }
      ],
      "name": "setBankAddress",
      "outputs": [],
      "payable": false,
      "stateMutability": "nonpayable",
      "type": "function"
    }
  ],
  "bytecode": "0x6060604052341561000f57600080fd5b6103fb8061001e6000396000f300606060405260043610610083576000357c0100000000000000000000000000000000000000000000000000000000900463ffffffff1680632e31722a14610088578063319e46df1461009d57806361e658f4146100b257806376cdb03b146100eb578063772c6fc714610140578063f91dfe4514610155578063fc3c0eee146101aa575b600080fd5b341561009357600080fd5b61009b6101e3565b005b34156100a857600080fd5b6100b0610241565b005b34156100bd57600080fd5b6100e9600480803573ffffffffffffffffffffffffffffffffffffffff1690602001909190505061029f565b005b34156100f657600080fd5b6100fe6102e3565b604051808273ffffffffffffffffffffffffffffffffffffffff1673ffffffffffffffffffffffffffffffffffffffff16815260200191505060405180910390f35b341561014b57600080fd5b610153610308565b005b341561016057600080fd5b610168610366565b604051808273ffffffffffffffffffffffffffffffffffffffff1673ffffffffffffffffffffffffffffffffffffffff16815260200191505060405180910390f35b34156101b557600080fd5b6101e1600480803573ffffffffffffffffffffffffffffffffffffffff1690602001909190505061038c565b005b600160009054906101000a900473ffffffffffffffffffffffffffffffffffffffff1673ffffffffffffffffffffffffffffffffffffffff163373ffffffffffffffffffffffffffffffffffffffff1614151561023f57600080fd5b565b600160009054906101000a900473ffffffffffffffffffffffffffffffffffffffff1673ffffffffffffffffffffffffffffffffffffffff163373ffffffffffffffffffffffffffffffffffffffff1614151561029d57600080fd5b565b80600160006101000a81548173ffffffffffffffffffffffffffffffffffffffff021916908373ffffffffffffffffffffffffffffffffffffffff16021790555050565b6000809054906101000a900473ffffffffffffffffffffffffffffffffffffffff1681565b600160009054906101000a900473ffffffffffffffffffffffffffffffffffffffff1673ffffffffffffffffffffffffffffffffffffffff163373ffffffffffffffffffffffffffffffffffffffff1614151561036457600080fd5b565b600160009054906101000a900473ffffffffffffffffffffffffffffffffffffffff1681565b806000806101000a81548173ffffffffffffffffffffffffffffffffffffffff021916908373ffffffffffffffffffffffffffffffffffffffff160217905550505600a165627a7a72305820eef761fd5c2c0cab7456c1bf811d98dccd3222a8b9932bc400288eabe02989bb0029",
  "source": "pragma solidity ^0.4.18;\nimport \"../contracts/CustomOwnables.sol\";\n\ncontract LocalGvt is CustomOwnables {\n\n    //local government adds, removes, updates refugee info\n    //registered refugees are stored in a database with an ID mapping to refugee details\n    //refugee details are stored in a struct\n\n    //map refugees id/contract id to Refugee struct\n    mapping(uint => Refugee) refugees;\n\n    struct Refugee {\n        uint id;\n        uint tokenBalance;\n        string dob;\n        string name;\n        string citizenship; \n        //etc\n    }\n\n    function registerRefugee () external view onlyLocalGvt {\n        //adds to refugees mapping\n    }\n\n    function deregisterRefugee () external view  onlyLocalGvt {\n        //deletes from refugees\n    }\n\n    function updateRefugee () external view onlyLocalGvt {\n        //updates specified refugee\n    }\n\n}",
  "sourcePath": "/home/fadzi/hackathon/contracts/LocalGvt.sol",
  "compiler": {
    "name": "solc",
    "version": "0.4.18+commit.9cf6e910.Emscripten.clang"
  },
  "schemaVersion": "1.0.1",
  "updatedAt": "2018-01-31T10:05:14.030Z"
}