{
  "contractName": "ManageWallets",
  "abi": [
    {
      "constant": true,
      "inputs": [
        {
          "name": "index",
          "type": "uint256"
        }
      ],
      "name": "getWallet",
      "outputs": [
        {
          "name": "",
          "type": "uint256"
        },
        {
          "name": "",
          "type": "string"
        },
        {
          "name": "",
          "type": "string"
        }
      ],
      "payable": false,
      "stateMutability": "view",
      "type": "function"
    },
    {
      "constant": true,
      "inputs": [],
      "name": "getWalletsCount",
      "outputs": [
        {
          "name": "",
          "type": "uint256"
        }
      ],
      "payable": false,
      "stateMutability": "view",
      "type": "function"
    },
    {
      "constant": true,
      "inputs": [
        {
          "name": "",
          "type": "uint256"
        }
      ],
      "name": "wallets",
      "outputs": [
        {
          "name": "walletId",
          "type": "uint256"
        },
        {
          "name": "publicKey",
          "type": "string"
        },
        {
          "name": "parentId",
          "type": "string"
        }
      ],
      "payable": false,
      "stateMutability": "view",
      "type": "function"
    },
    {
      "constant": false,
      "inputs": [
        {
          "name": "_Id",
          "type": "string"
        }
      ],
      "name": "assignWallet",
      "outputs": [
        {
          "name": "",
          "type": "uint256"
        },
        {
          "name": "",
          "type": "string"
        },
        {
          "name": "",
          "type": "string"
        }
      ],
      "payable": false,
      "stateMutability": "nonpayable",
      "type": "function"
    },
    {
      "inputs": [
        {
          "name": "walletId",
          "type": "uint256"
        },
        {
          "name": "publicKey",
          "type": "string"
        },
        {
          "name": "parentId",
          "type": "string"
        }
      ],
      "payable": false,
      "stateMutability": "nonpayable",
      "type": "constructor"
    }
  ],
  "bytecode": "0x6060604052600160005534156200001557600080fd5b604051620016843803806200168483398101604052808051906020019091908051820191906020018051820191905050600180548060010182816200005b919062000bb6565b9160005260206000209060030201600060606040519081016040528060018152602001606060405190810160405280602a81526020017f307844306536653234366330353535626546383737623930664136383144363981526020017f363066453630466564350000000000000000000000000000000000000000000081525081526020016040805190810160405280600481526020017f4e554c4c0000000000000000000000000000000000000000000000000000000081525081525090919091506000820151816000015560208201518160010190805190602001906200014692919062000beb565b5060408201518160020190805190602001906200016592919062000beb565b50505050600180548060010182816200017f919062000bb6565b9160005260206000209060030201600060606040519081016040528060028152602001606060405190810160405280602a81526020017f307832306537383835323862364564343034423534373063316432443338633581526020017f323532353230366362410000000000000000000000000000000000000000000081525081526020016040805190810160405280600481526020017f4e554c4c0000000000000000000000000000000000000000000000000000000081525081525090919091506000820151816000015560208201518160010190805190602001906200026a92919062000beb565b5060408201518160020190805190602001906200028992919062000beb565b5050505060018054806001018281620002a3919062000bb6565b9160005260206000209060030201600060606040519081016040528060038152602001606060405190810160405280602a81526020017f307833396532333539344536356639663666433266363545346235374261323681526020017f354339363839653834320000000000000000000000000000000000000000000081525081526020016040805190810160405280600481526020017f4e554c4c0000000000000000000000000000000000000000000000000000000081525081525090919091506000820151816000015560208201518160010190805190602001906200038e92919062000beb565b506040820151816002019080519060200190620003ad92919062000beb565b5050505060018054806001018281620003c7919062000bb6565b9160005260206000209060030201600060606040519081016040528060048152602001606060405190810160405280602a81526020017f307865323439653039303537326534453237643141303662363431423165456181526020017f353945304642373645340000000000000000000000000000000000000000000081525081526020016040805190810160405280600481526020017f4e554c4c000000000000000000000000000000000000000000000000000000008152508152509091909150600082015181600001556020820151816001019080519060200190620004b292919062000beb565b506040820151816002019080519060200190620004d192919062000beb565b5050505060018054806001018281620004eb919062000bb6565b9160005260206000209060030201600060606040519081016040528060058152602001606060405190810160405280602a81526020017f307863363431453964363138383466306545393135333032643138323638456281526020017f353661343639663139430000000000000000000000000000000000000000000081525081526020016040805190810160405280600481526020017f4e554c4c000000000000000000000000000000000000000000000000000000008152508152509091909150600082015181600001556020820151816001019080519060200190620005d692919062000beb565b506040820151816002019080519060200190620005f592919062000beb565b50505050600180548060010182816200060f919062000bb6565b9160005260206000209060030201600060606040519081016040528060068152602001606060405190810160405280602a81526020017f307839454537393730646637303336443966313544304564313333614266386481526020017f353833353043413839390000000000000000000000000000000000000000000081525081526020016040805190810160405280600481526020017f4e554c4c000000000000000000000000000000000000000000000000000000008152508152509091909150600082015181600001556020820151816001019080519060200190620006fa92919062000beb565b5060408201518160020190805190602001906200071992919062000beb565b505050506001805480600101828162000733919062000bb6565b9160005260206000209060030201600060606040519081016040528060078152602001606060405190810160405280602a81526020017f307831333446653038313163314363426136366336393143366641303164326281526020017f364235353362656463390000000000000000000000000000000000000000000081525081526020016040805190810160405280600481526020017f4e554c4c0000000000000000000000000000000000000000000000000000000081525081525090919091506000820151816000015560208201518160010190805190602001906200081e92919062000beb565b5060408201518160020190805190602001906200083d92919062000beb565b505050506001805480600101828162000857919062000bb6565b9160005260206000209060030201600060606040519081016040528060088152602001606060405190810160405280602a81526020017f307835666631413045663146653564366446303735364162653238613344386281526020017f463332633246333043630000000000000000000000000000000000000000000081525081526020016040805190810160405280600481526020017f4e554c4c0000000000000000000000000000000000000000000000000000000081525081525090919091506000820151816000015560208201518160010190805190602001906200094292919062000beb565b5060408201518160020190805190602001906200096192919062000beb565b50505050600180548060010182816200097b919062000bb6565b9160005260206000209060030201600060606040519081016040528060098152602001606060405190810160405280602a81526020017f307838443239366539373366323639353633454337383666423164383334654281526020017f384536373834423361350000000000000000000000000000000000000000000081525081526020016040805190810160405280600481526020017f4e554c4c00000000000000000000000000000000000000000000000000000000815250815250909190915060008201518160000155602082015181600101908051906020019062000a6692919062000beb565b50604082015181600201908051906020019062000a8592919062000beb565b505050506001805480600101828162000a9f919062000bb6565b91600052602060002090600302016000606060405190810160405280600a8152602001606060405190810160405280602a81526020017f307866466566374638353063443939613834643936334338303839423661394181526020017f353136303130316430450000000000000000000000000000000000000000000081525081526020016040805190810160405280600481526020017f4e554c4c00000000000000000000000000000000000000000000000000000000815250815250909190915060008201518160000155602082015181600101908051906020019062000b8a92919062000beb565b50604082015181600201908051906020019062000ba992919062000beb565b5050505050505062000d34565b81548183558181151162000be65760030281600302836000526020600020918201910162000be5919062000c72565b5b505050565b828054600181600116156101000203166002900490600052602060002090601f016020900481019282601f1062000c2e57805160ff191683800117855562000c5f565b8280016001018555821562000c5f579182015b8281111562000c5e57825182559160200191906001019062000c41565b5b50905062000c6e919062000cc0565b5090565b62000cbd91905b8082111562000cb95760008082016000905560018201600062000c9d919062000ce8565b60028201600062000caf919062000ce8565b5060030162000c79565b5090565b90565b62000ce591905b8082111562000ce157600081600090555060010162000cc7565b5090565b90565b50805460018160011615610100020316600290046000825580601f1062000d10575062000d31565b601f01602090049060005260206000209081019062000d30919062000cc0565b5b50565b6109408062000d446000396000f300606060405260043610610062576000357c0100000000000000000000000000000000000000000000000000000000900463ffffffff1680635470b13b14610067578063778b5aee146101765780637ad71f721461019f5780637d616923146102e8575b600080fd5b341561007257600080fd5b6100886004808035906020019091905050610431565b604051808481526020018060200180602001838103835285818151815260200191508051906020019080838360005b838110156100d25780820151818401526020810190506100b7565b50505050905090810190601f1680156100ff5780820380516001836020036101000a031916815260200191505b50838103825284818151815260200191508051906020019080838360005b8381101561013857808201518184015260208101905061011d565b50505050905090810190601f1680156101655780820380516001836020036101000a031916815260200191505b509550505050505060405180910390f35b341561018157600080fd5b6101896105e9565b6040518082815260200191505060405180910390f35b34156101aa57600080fd5b6101c060048080359060200190919050506105f6565b6040518084815260200180602001806020018381038352858181546001816001161561010002031660029004815260200191508054600181600116156101000203166002900480156102535780601f1061022857610100808354040283529160200191610253565b820191906000526020600020905b81548152906001019060200180831161023657829003601f168201915b50508381038252848181546001816001161561010002031660029004815260200191508054600181600116156101000203166002900480156102d65780601f106102ab576101008083540402835291602001916102d6565b820191906000526020600020905b8154815290600101906020018083116102b957829003601f168201915b50509550505050505060405180910390f35b34156102f357600080fd5b610343600480803590602001908201803590602001908080601f0160208091040260200160405190810160405280939291908181526020018383808284378201915050505050509190505061062d565b604051808481526020018060200180602001838103835285818151815260200191508051906020019080838360005b8381101561038d578082015181840152602081019050610372565b50505050905090810190601f1680156103ba5780820380516001836020036101000a031916815260200191505b50838103825284818151815260200191508051906020019080838360005b838110156103f35780820151818401526020810190506103d8565b50505050905090810190601f1680156104205780820380516001836020036101000a031916815260200191505b509550505050505060405180910390f35b600061043b61085b565b61044361085b565b60018481548110151561045257fe5b90600052602060002090600302016000015460018581548110151561047357fe5b906000526020600020906003020160010160018681548110151561049357fe5b9060005260206000209060030201600201818054600181600116156101000203166002900480601f0160208091040260200160405190810160405280929190818152602001828054600181600116156101000203166002900480156105395780601f1061050e57610100808354040283529160200191610539565b820191906000526020600020905b81548152906001019060200180831161051c57829003601f168201915b50505050509150808054600181600116156101000203166002900480601f0160208091040260200160405190810160405280929190818152602001828054600181600116156101000203166002900480156105d55780601f106105aa576101008083540402835291602001916105d5565b820191906000526020600020905b8154815290600101906020018083116105b857829003601f168201915b505050505090509250925092509193909250565b6000600180549050905090565b60018181548110151561060557fe5b9060005260206000209060030201600091509050806000015490806001019080600201905083565b600061063761085b565b61063f61085b565b60006106496105e9565b905060008111151561065a57600080fd5b600b60005410156106ae5784600160005481548110151561067757fe5b9060005260206000209060030201600201908051906020019061069b92919061086f565b5060008081548092919060010191905055505b60016000548154811015156106bf57fe5b90600052602060002090600302016000015460016000548154811015156106e257fe5b9060005260206000209060030201600101600160005481548110151561070457fe5b9060005260206000209060030201600201818054600181600116156101000203166002900480601f0160208091040260200160405190810160405280929190818152602001828054600181600116156101000203166002900480156107aa5780601f1061077f576101008083540402835291602001916107aa565b820191906000526020600020905b81548152906001019060200180831161078d57829003601f168201915b50505050509150808054600181600116156101000203166002900480601f0160208091040260200160405190810160405280929190818152602001828054600181600116156101000203166002900480156108465780601f1061081b57610100808354040283529160200191610846565b820191906000526020600020905b81548152906001019060200180831161082957829003601f168201915b50505050509050935093509350509193909250565b602060405190810160405280600081525090565b828054600181600116156101000203166002900490600052602060002090601f016020900481019282601f106108b057805160ff19168380011785556108de565b828001600101855582156108de579182015b828111156108dd5782518255916020019190600101906108c2565b5b5090506108eb91906108ef565b5090565b61091191905b8082111561090d5760008160009055506001016108f5565b5090565b905600a165627a7a72305820fc557937da518147f193b24f7c74270a20249115168badd9a6e98c3c704d63730029",
  "source": "pragma solidity ^0.4.17;\n\ncontract ManageWallets {\n\n    struct Wallets {\n        uint walletId;\n        string publicKey;\n        string parentId;\n    }\n    \n    uint walletNext = 1;\n\n    Wallets[] public wallets;\n\n    //Get Wallets Count\n    function getWalletsCount() public constant returns(uint) {\n        return wallets.length;\n    }\n    \n    //Get Wallet Details. This function requires that you know the specific wallet Id\n    function getWallet(uint index) public constant returns(uint, string, string) {\n        return (wallets[index].walletId, wallets[index].publicKey, wallets[index].parentId);\n    }\n    //Assign Wallet to Entity. This function looks for unused wallet to assign to Refugee or Merchant\n    function assignWallet(string _Id) public returns(uint, string, string) {\n        \n        uint _walletCount = getWalletsCount();\n        require(_walletCount > 0);\n        \n            if (walletNext < 11) {\n            wallets[walletNext].parentId = _Id;\n            walletNext++;\n            }\n    return (wallets[walletNext].walletId, wallets[walletNext].publicKey, wallets[walletNext].parentId);\n    }\n    //Create Wallets from a list provided in Excel. No Private keys to be populated\n    \n    function ManageWallets(uint walletId, string publicKey, string parentId) {\n        wallets.push(Wallets(1,\"0xD0e6e246c0555beF877b90fA681D6960fE60Fed5\",\"NULL\"));\n        wallets.push(Wallets(2,\"0x20e788528b6Ed404B5470c1d2D38c52525206cbA\",\"NULL\"));\n        wallets.push(Wallets(3,\"0x39e23594E65f9f6fC2f65E4b57Ba265C9689e842\",\"NULL\"));\n        wallets.push(Wallets(4,\"0xe249e090572e4E27d1A06b641B1eEa59E0FB76E4\",\"NULL\"));\n        wallets.push(Wallets(5,\"0xc641E9d61884f0eE915302d18268Eb56a469f19C\",\"NULL\"));\n        wallets.push(Wallets(6,\"0x9EE7970df7036D9f15D0Ed133aBf8d58350CA899\",\"NULL\"));\n        wallets.push(Wallets(7,\"0x134Fe0811c1CcBa66c691C6fA01d2b6B553bedc9\",\"NULL\"));\n        wallets.push(Wallets(8,\"0x5ff1A0Ef1Fe5d6dF0756Abe28a3D8bF32c2F30Cc\",\"NULL\"));\n        wallets.push(Wallets(9,\"0x8D296e973f269563EC786fB1d834eB8E6784B3a5\",\"NULL\"));\n        wallets.push(Wallets(10,\"0xfFef7F850cD99a84d963C8089B6a9A5160101d0E\",\"NULL\"));\n    }\n\n}",
  "sourcePath": "/mnt/d/unlock-the-block/DCentral/contracts/ManageWallets.sol",
  "compiler": {
    "name": "solc",
    "version": "0.4.18+commit.9cf6e910.Emscripten.clang"
  },
  "schemaVersion": "1.0.1",
  "updatedAt": "2018-01-31T18:52:22.730Z"
}