{
  "contractName": "Merchant",
  "abi": [
    {
      "constant": false,
      "inputs": [
        {
          "name": "_bankAccountNumber",
          "type": "uint256"
        },
        {
          "name": "_name",
          "type": "string"
        },
        {
          "name": "_bankNameAndBranch",
          "type": "string"
        },
        {
          "name": "_phone",
          "type": "string"
        },
        {
          "name": "_merchantAddress",
          "type": "string"
        },
        {
          "name": "_password",
          "type": "string"
        }
      ],
      "name": "registerAsMerchant",
      "outputs": [],
      "payable": false,
      "stateMutability": "nonpayable",
      "type": "function"
    },
    {
      "constant": false,
      "inputs": [
        {
          "name": "_totalBill",
          "type": "uint256"
        },
        {
          "name": "_refugeeID",
          "type": "uint256"
        },
        {
          "name": "_merchantID",
          "type": "uint256"
        },
        {
          "name": "_purchaseDescription",
          "type": "string"
        }
      ],
      "name": "recordTokenTransaction",
      "outputs": [],
      "payable": false,
      "stateMutability": "nonpayable",
      "type": "function"
    },
    {
      "anonymous": false,
      "inputs": [
        {
          "indexed": false,
          "name": "_totalBill",
          "type": "uint256"
        },
        {
          "indexed": false,
          "name": "_refugeeID",
          "type": "uint256"
        },
        {
          "indexed": false,
          "name": "_merchantID",
          "type": "uint256"
        },
        {
          "indexed": false,
          "name": "_purchaseDescription",
          "type": "string"
        }
      ],
      "name": "TokenTransactionAdded",
      "type": "event"
    }
  ],
  "bytecode": "0x6060604052341561000f57600080fd5b6106ca8061001e6000396000f30060606040526004361061004c576000357c0100000000000000000000000000000000000000000000000000000000900463ffffffff168063b4e1655614610051578063cc0fcf09146100d8575b600080fd5b341561005c57600080fd5b6100d6600480803590602001909190803590602001908201803590602001919091929080359060200190820180359060200191909192908035906020019082018035906020019190919290803590602001908201803590602001919091929080359060200190820180359060200191909192905050610150565b005b34156100e357600080fd5b61014e600480803590602001909190803590602001909190803590602001909190803590602001908201803590602001908080601f0160208091040260200160405190810160405280939291908181526020018383808284378201915050505050509190505061034c565b005b60018054806001018281610164919061048f565b9160005260206000209060060201600060c0604051908101604052808f81526020018e8e8080601f01602080910402602001604051908101604052809392919081815260200183838082843782019150505050505081526020018c8c8080601f01602080910402602001604051908101604052809392919081815260200183838082843782019150505050505081526020018a8a8080601f016020809104026020016040519081016040528093929190818152602001838380828437820191505050505050815260200188888080601f016020809104026020016040519081016040528093929190818152602001838380828437820191505050505050815260200186868080601f01602080910402602001604051908101604052809392919081815260200183838082843782019150505050505081525090919091506000820151816000015560208201518160010190805190602001906102c79291906104c1565b5060408201518160020190805190602001906102e49291906104c1565b5060608201518160030190805190602001906103019291906104c1565b50608082015181600401908051906020019061031e9291906104c1565b5060a082015181600501908051906020019061033b9291906104c1565b505050505050505050505050505050565b600080548060010182816103609190610541565b9160005260206000209060040201600060806040519081016040528088815260200187815260200186815260200185815250909190915060008201518160000155602082015181600101556040820151816002015560608201518160030190805190602001906103d19291906104c1565b505050507f4c5584f7ed6a70259a199ef10058d0db378cc8f6fb99c3271c54444ab4cc875b848484846040518085815260200184815260200183815260200180602001828103825283818151815260200191508051906020019080838360005b8381101561044c578082015181840152602081019050610431565b50505050905090810190601f1680156104795780820380516001836020036101000a031916815260200191505b509550505050505060405180910390a150505050565b8154818355818115116104bc576006028160060283600052602060002091820191016104bb9190610573565b5b505050565b828054600181600116156101000203166002900490600052602060002090601f016020900481019282601f1061050257805160ff1916838001178555610530565b82800160010185558215610530579182015b8281111561052f578251825591602001919060010190610514565b5b50905061053d91906105ea565b5090565b81548183558181151161056e5760040281600402836000526020600020918201910161056d919061060f565b5b505050565b6105e791905b808211156105e35760008082016000905560018201600061059a9190610656565b6002820160006105aa9190610656565b6003820160006105ba9190610656565b6004820160006105ca9190610656565b6005820160006105da9190610656565b50600601610579565b5090565b90565b61060c91905b808211156106085760008160009055506001016105f0565b5090565b90565b61065391905b8082111561064f57600080820160009055600182016000905560028201600090556003820160006106469190610656565b50600401610615565b5090565b90565b50805460018160011615610100020316600290046000825580601f1061067c575061069b565b601f01602090049060005260206000209081019061069a91906105ea565b5b505600a165627a7a72305820b642362063e6479cd316a872cbbeff44fa0ae39938acd992885542cd2c7c57d90029",
  "source": "pragma solidity ^0.4.18;\n\ncontract Merchant {\n\n    /* 1. the merchant scans for the refugee's key (implemented in Javascript)\n     * 2. once the key is found, the merchant then retrieves refugee's picture \n     *    or fingerprint for verification (also implemented in Javascript)\n     * 3. if verification is successful, the merchant approves the token purchse\n     *    provided the bill is less than the token balance of the refugee (implemented in javascript)\n     * 4. if the transaction is approved, it is added to the tokenTransactions database on the blockchain\n     * 5. once the transaction is recorded, an event is triggered so that the tokens are burnt and the \n     *    refugee balance is reduced from web3js\n     * 6. merchant applies for registration from the front end */\n\n    event TokenTransactionAdded (uint _totalBill, uint _refugeeID, uint _merchantID, string _purchaseDescription);\n    TokenTransaction[] tokenTransactions;\n    MerchantProfile[] merchants;\n\n    struct TokenTransaction {\n        uint totalBill;\n        uint refugeeID;\n        uint merchantID;\n        string purchaseDescription;\n    }\n\n    struct MerchantProfile {\n        uint bankAccountNumber;\n        string name;\n        string bankNameAndBranch;\n        string phone;\n        string merchantAddress;\n        string password;  //merchant password to be encrypted from the front-end\n    }\n\n    /*recordTokenTransaction takes the total bill and purchase description \n    from the front end and adds it to the blockchain*/\n    function recordTokenTransaction (uint _totalBill, uint _refugeeID, uint _merchantID, string _purchaseDescription) public {\n        tokenTransactions.push(TokenTransaction(_totalBill, _refugeeID, _merchantID, _purchaseDescription));\n        TokenTransactionAdded(_totalBill, _refugeeID, _merchantID, _purchaseDescription);\n    }\n\n    function registerAsMerchant (uint _bankAccountNumber, string _name, string _bankNameAndBranch, string _phone, string _merchantAddress, string _password) external {\n        //adds to merchants database\n        merchants.push(MerchantProfile(_bankAccountNumber, _name, _bankNameAndBranch, _phone, _merchantAddress, _password));\n    }\n}",
  "sourcePath": "/home/fadzi/hackathon/contracts/Merchant.sol",
  "compiler": {
    "name": "solc",
    "version": "0.4.18+commit.9cf6e910.Emscripten.clang"
  },
  "schemaVersion": "1.0.1",
  "updatedAt": "2018-01-31T10:05:14.036Z"
}