{
  "contractName": "MerchantRegister",
  "abi": [
    {
      "constant": true,
      "inputs": [],
      "name": "getMerchantId",
      "outputs": [
        {
          "name": "",
          "type": "string"
        }
      ],
      "payable": false,
      "stateMutability": "view",
      "type": "function"
    },
    {
      "constant": true,
      "inputs": [],
      "name": "getMerchantActive",
      "outputs": [
        {
          "name": "",
          "type": "bool"
        }
      ],
      "payable": false,
      "stateMutability": "view",
      "type": "function"
    },
    {
      "constant": false,
      "inputs": [
        {
          "name": "_merchantId",
          "type": "string"
        },
        {
          "name": "_active",
          "type": "bool"
        },
        {
          "name": "_ipfsHash",
          "type": "string"
        }
      ],
      "name": "createMerchant",
      "outputs": [],
      "payable": false,
      "stateMutability": "nonpayable",
      "type": "function"
    },
    {
      "constant": true,
      "inputs": [
        {
          "name": "",
          "type": "uint256"
        }
      ],
      "name": "merchants",
      "outputs": [
        {
          "name": "merchantId",
          "type": "string"
        },
        {
          "name": "active",
          "type": "bool"
        },
        {
          "name": "ipfsHash",
          "type": "string"
        }
      ],
      "payable": false,
      "stateMutability": "view",
      "type": "function"
    },
    {
      "constant": true,
      "inputs": [],
      "name": "getMerchantIpsfHash",
      "outputs": [
        {
          "name": "",
          "type": "string"
        }
      ],
      "payable": false,
      "stateMutability": "view",
      "type": "function"
    },
    {
      "inputs": [],
      "payable": false,
      "stateMutability": "nonpayable",
      "type": "constructor"
    }
  ],
  "bytecode": "0x6060604052341561000f57600080fd5b336000806101000a81548173ffffffffffffffffffffffffffffffffffffffff021916908373ffffffffffffffffffffffffffffffffffffffff1602179055506108168061005e6000396000f30060606040526004361061006d576000357c0100000000000000000000000000000000000000000000000000000000900463ffffffff168063044bcc48146100725780630c2b7ee314610100578063503ddce31461012d57806392c8823b146101d8578063ed7862d614610325575b600080fd5b341561007d57600080fd5b6100856103b3565b6040518080602001828103825283818151815260200191508051906020019080838360005b838110156100c55780820151818401526020810190506100aa565b50505050905090810190601f1680156100f25780820380516001836020036101000a031916815260200191505b509250505060405180910390f35b341561010b57600080fd5b61011361047a565b604051808215151515815260200191505060405180910390f35b341561013857600080fd5b6101d6600480803590602001908201803590602001908080601f01602080910402602001604051908101604052809392919081815260200183838082843782019150505050505091908035151590602001909190803590602001908201803590602001908080601f016020809104026020016040519081016040528093929190818152602001838380828437820191505050505050919050506104b0565b005b34156101e357600080fd5b6101f96004808035906020019091905050610559565b604051808060200184151515158152602001806020018381038352868181546001816001161561010002031660029004815260200191508054600181600116156101000203166002900480156102905780601f1061026557610100808354040283529160200191610290565b820191906000526020600020905b81548152906001019060200180831161027357829003601f168201915b50508381038252848181546001816001161561010002031660029004815260200191508054600181600116156101000203166002900480156103135780601f106102e857610100808354040283529160200191610313565b820191906000526020600020905b8154815290600101906020018083116102f657829003601f168201915b50509550505050505060405180910390f35b341561033057600080fd5b61033861059d565b6040518080602001828103825283818151815260200191508051906020019080838360005b8381101561037857808201518184015260208101905061035d565b50505050905090810190601f1680156103a55780820380516001836020036101000a031916815260200191505b509250505060405180910390f35b6103bb610664565b600160008154811015156103cb57fe5b90600052602060002090600302016000018054600181600116156101000203166002900480601f0160208091040260200160405190810160405280929190818152602001828054600181600116156101000203166002900480156104705780601f1061044557610100808354040283529160200191610470565b820191906000526020600020905b81548152906001019060200180831161045357829003601f168201915b5050505050905090565b60006001600081548110151561048c57fe5b906000526020600020906003020160010160009054906101000a900460ff16905090565b600180548060010182816104c49190610678565b91600052602060002090600302016000606060405190810160405280878152602001861515815260200185815250909190915060008201518160000190805190602001906105139291906106aa565b5060208201518160010160006101000a81548160ff02191690831515021790555060408201518160020190805190602001906105509291906106aa565b50505050505050565b60018181548110151561056857fe5b906000526020600020906003020160009150905080600001908060010160009054906101000a900460ff169080600201905083565b6105a5610664565b600160008154811015156105b557fe5b90600052602060002090600302016002018054600181600116156101000203166002900480601f01602080910402602001604051908101604052809291908181526020018280546001816001161561010002031660029004801561065a5780601f1061062f5761010080835404028352916020019161065a565b820191906000526020600020905b81548152906001019060200180831161063d57829003601f168201915b5050505050905090565b602060405190810160405280600081525090565b8154818355818115116106a5576003028160030283600052602060002091820191016106a4919061072a565b5b505050565b828054600181600116156101000203166002900490600052602060002090601f016020900481019282601f106106eb57805160ff1916838001178555610719565b82800160010185558215610719579182015b828111156107185782518255916020019190600101906106fd565b5b509050610726919061077d565b5090565b61077a91905b80821115610776576000808201600061074991906107a2565b6001820160006101000a81549060ff021916905560028201600061076d91906107a2565b50600301610730565b5090565b90565b61079f91905b8082111561079b576000816000905550600101610783565b5090565b90565b50805460018160011615610100020316600290046000825580601f106107c857506107e7565b601f0160209004906000526020600020908101906107e6919061077d565b5b505600a165627a7a723058209ec52600d5a7c152de05ca9b7dd910cf7c86c98c601e1e9cca9361bf76b69c3a0029",
  "source": "pragma solidity ^0.4.18;\n\ncontract MerchantRegister {\n\n    address creator;\n\n    struct Merchant {\n        string merchantId;\n\t\tbool active;        \n        string ipfsHash;\n    }\n\n\n    Merchant[] public merchants;\n    \n    function MerchantRegister() public {\n        creator = msg.sender;\n    }\n\n\n    function createMerchant(string _merchantId, bool _active, string _ipfsHash) public {\n        //merchants.push(Merchant(_merchantId));   \n        merchants.push(Merchant(_merchantId, _active, _ipfsHash));       \n    }\n\n\n    function getMerchantId() public constant returns (string) {\n        return (merchants[0].merchantId);\n    }\n\n    function getMerchantActive() public constant returns (bool) {\n        return (merchants[0].active);\n    }\n\n    function getMerchantIpsfHash() public constant returns (string) {\n        return (merchants[0].ipfsHash);\n    }\n}",
  "sourcePath": "/mnt/d/unlock-the-block/DCentral/contracts/MerchantRegister.sol",
  "compiler": {
    "name": "solc",
    "version": "0.4.18+commit.9cf6e910.Emscripten.clang"
  },
  "schemaVersion": "1.0.1",
  "updatedAt": "2018-01-31T18:52:45.094Z"
}