{
  "contractName": "TokenSeller",
  "abi": [
    {
      "constant": false,
      "inputs": [
        {
          "name": "tokens",
          "type": "uint256"
        }
      ],
      "name": "makerWithdrawTokens",
      "outputs": [
        {
          "name": "ok",
          "type": "bool"
        }
      ],
      "payable": false,
      "stateMutability": "nonpayable",
      "type": "function"
    },
    {
      "constant": false,
      "inputs": [
        {
          "name": "amount",
          "type": "uint256"
        }
      ],
      "name": "makerWithdrawEther",
      "outputs": [
        {
          "name": "confirm",
          "type": "bool"
        }
      ],
      "payable": false,
      "stateMutability": "nonpayable",
      "type": "function"
    },
    {
      "constant": true,
      "inputs": [],
      "name": "asset",
      "outputs": [
        {
          "name": "",
          "type": "address"
        }
      ],
      "payable": false,
      "stateMutability": "view",
      "type": "function"
    },
    {
      "constant": true,
      "inputs": [],
      "name": "makerGetBalance",
      "outputs": [
        {
          "name": "balance",
          "type": "uint256"
        }
      ],
      "payable": false,
      "stateMutability": "view",
      "type": "function"
    },
    {
      "constant": true,
      "inputs": [],
      "name": "sellPrice",
      "outputs": [
        {
          "name": "",
          "type": "uint256"
        }
      ],
      "payable": false,
      "stateMutability": "view",
      "type": "function"
    },
    {
      "constant": true,
      "inputs": [],
      "name": "sellsTokens",
      "outputs": [
        {
          "name": "",
          "type": "bool"
        }
      ],
      "payable": false,
      "stateMutability": "view",
      "type": "function"
    },
    {
      "constant": true,
      "inputs": [],
      "name": "owner",
      "outputs": [
        {
          "name": "",
          "type": "address"
        }
      ],
      "payable": false,
      "stateMutability": "view",
      "type": "function"
    },
    {
      "constant": true,
      "inputs": [],
      "name": "units",
      "outputs": [
        {
          "name": "",
          "type": "uint256"
        }
      ],
      "payable": false,
      "stateMutability": "view",
      "type": "function"
    },
    {
      "constant": false,
      "inputs": [
        {
          "name": "tokenAddress",
          "type": "address"
        },
        {
          "name": "amount",
          "type": "uint256"
        }
      ],
      "name": "makerWithdrawERC20Token",
      "outputs": [
        {
          "name": "confirm",
          "type": "bool"
        }
      ],
      "payable": false,
      "stateMutability": "nonpayable",
      "type": "function"
    },
    {
      "constant": false,
      "inputs": [],
      "name": "takerBuyAsset",
      "outputs": [],
      "payable": true,
      "stateMutability": "payable",
      "type": "function"
    },
    {
      "constant": false,
      "inputs": [
        {
          "name": "_sellsTokens",
          "type": "bool"
        }
      ],
      "name": "activate",
      "outputs": [],
      "payable": false,
      "stateMutability": "nonpayable",
      "type": "function"
    },
    {
      "constant": true,
      "inputs": [],
      "name": "getEtherBalance",
      "outputs": [
        {
          "name": "ethers",
          "type": "uint256"
        }
      ],
      "payable": false,
      "stateMutability": "view",
      "type": "function"
    },
    {
      "constant": false,
      "inputs": [
        {
          "name": "newOwner",
          "type": "address"
        }
      ],
      "name": "transferOwnership",
      "outputs": [],
      "payable": false,
      "stateMutability": "nonpayable",
      "type": "function"
    },
    {
      "inputs": [
        {
          "name": "_asset",
          "type": "address"
        },
        {
          "name": "_sellPrice",
          "type": "uint256"
        },
        {
          "name": "_units",
          "type": "uint256"
        },
        {
          "name": "_sellsTokens",
          "type": "bool"
        }
      ],
      "payable": false,
      "stateMutability": "nonpayable",
      "type": "constructor"
    },
    {
      "payable": true,
      "stateMutability": "payable",
      "type": "fallback"
    },
    {
      "anonymous": false,
      "inputs": [
        {
          "indexed": false,
          "name": "sells",
          "type": "bool"
        }
      ],
      "name": "ActivatedEvent",
      "type": "event"
    },
    {
      "anonymous": false,
      "inputs": [
        {
          "indexed": false,
          "name": "tokens",
          "type": "uint256"
        }
      ],
      "name": "MakerWithdrewAsset",
      "type": "event"
    },
    {
      "anonymous": false,
      "inputs": [
        {
          "indexed": false,
          "name": "tokenAddress",
          "type": "address"
        },
        {
          "indexed": false,
          "name": "tokens",
          "type": "uint256"
        }
      ],
      "name": "MakerWithdrewERC20Token",
      "type": "event"
    },
    {
      "anonymous": false,
      "inputs": [
        {
          "indexed": false,
          "name": "ethers",
          "type": "uint256"
        }
      ],
      "name": "MakerWithdrewEther",
      "type": "event"
    },
    {
      "anonymous": false,
      "inputs": [
        {
          "indexed": true,
          "name": "buyer",
          "type": "address"
        },
        {
          "indexed": false,
          "name": "ethersSent",
          "type": "uint256"
        },
        {
          "indexed": false,
          "name": "ethersReturned",
          "type": "uint256"
        },
        {
          "indexed": false,
          "name": "tokensBought",
          "type": "uint256"
        }
      ],
      "name": "TakerBoughtAsset",
      "type": "event"
    },
    {
      "anonymous": false,
      "inputs": [
        {
          "indexed": true,
          "name": "previousOwner",
          "type": "address"
        },
        {
          "indexed": true,
          "name": "newOwner",
          "type": "address"
        }
      ],
      "name": "OwnershipTransferred",
      "type": "event"
    }
  ],
  "bytecode": "0x6060604052341561000f57600080fd5b60405160808061101983398101604052808051906020019091908051906020019091908051906020019091908051906020019091905050336000806101000a81548173ffffffffffffffffffffffffffffffffffffffff021916908373ffffffffffffffffffffffffffffffffffffffff16021790555083600160006101000a81548173ffffffffffffffffffffffffffffffffffffffff021916908373ffffffffffffffffffffffffffffffffffffffff160217905550826002819055508160038190555080600460006101000a81548160ff0219169083151502179055507fce78b7525a161aee9986871a8dcad7e2783f9a4d66383783243cf14ec7086f85600460009054906101000a900460ff16604051808215151515815260200191505060405180910390a150505050610ecd8061014c6000396000f3006060604052600436106100c5576000357c0100000000000000000000000000000000000000000000000000000000900463ffffffff168063086fea13146100c75780632170ebf71461010257806338d52e0f1461013d578063455ffc09146101925780634b750334146101bb5780634ca50f59146101e45780638da5cb5b14610211578063976a843514610266578063c34764cf1461028f578063c60ccb0e146102e9578063ce5e84a3146102f3578063ea46193e14610318578063f2fde38b14610341575b005b34156100d257600080fd5b6100e860048080359060200190919050506105b6565b604051808215151515815260200191505060405180910390f35b341561010d57600080fd5b6101236004808035906020019091905050610848565b604051808215151515815260200191505060405180910390f35b341561014857600080fd5b610150610963565b604051808273ffffffffffffffffffffffffffffffffffffffff1673ffffffffffffffffffffffffffffffffffffffff16815260200191505060405180910390f35b341561019d57600080fd5b6101a5610989565b6040518082815260200191505060405180910390f35b34156101c657600080fd5b6101ce610a70565b6040518082815260200191505060405180910390f35b34156101ef57600080fd5b6101f7610a76565b604051808215151515815260200191505060405180910390f35b341561021c57600080fd5b610224610a89565b604051808273ffffffffffffffffffffffffffffffffffffffff1673ffffffffffffffffffffffffffffffffffffffff16815260200191505060405180910390f35b341561027157600080fd5b610279610aae565b6040518082815260200191505060405180910390f35b341561029a57600080fd5b6102cf600480803573ffffffffffffffffffffffffffffffffffffffff16906020019091908035906020019091905050610ab4565b604051808215151515815260200191505060405180910390f35b6102f161037a565b005b34156102fe57600080fd5b61031660048080351515906020019091905050610c6b565b005b341561032357600080fd5b61032b610d2d565b6040518082815260200191505060405180910390f35b341561034c57600080fd5b610378600480803573ffffffffffffffffffffffffffffffffffffffff16906020019091905050610d4c565b005b6000600460009054906101000a900460ff16806103e357506000809054906101000a900473ffffffffffffffffffffffffffffffffffffffff1673ffffffffffffffffffffffffffffffffffffffff163373ffffffffffffffffffffffffffffffffffffffff16145b1561057257600254341415156103f857600080fd5b610400610989565b9050600160009054906101000a900473ffffffffffffffffffffffffffffffffffffffff1673ffffffffffffffffffffffffffffffffffffffff1663a9059cbb33836000604051602001526040518363ffffffff167c0100000000000000000000000000000000000000000000000000000000028152600401808373ffffffffffffffffffffffffffffffffffffffff1673ffffffffffffffffffffffffffffffffffffffff16815260200182815260200192505050602060405180830381600087803b15156104cf57600080fd5b6102c65a03f115156104e057600080fd5b505050604051805190505080600360008282540392505081905550346002600082825403925050819055503373ffffffffffffffffffffffffffffffffffffffff167f37e948531341be0a8ce95c3833827c6f3559825cb6421e6ff1fe21c3a8b712173460035460025460405180848152602001838152602001828152602001935050505060405180910390a26105b3565b3373ffffffffffffffffffffffffffffffffffffffff166108fc349081150290604051600060405180830381858888f1935050505015156105b257600080fd5b5b50565b60008060009054906101000a900473ffffffffffffffffffffffffffffffffffffffff1673ffffffffffffffffffffffffffffffffffffffff163373ffffffffffffffffffffffffffffffffffffffff1614151561061357600080fd5b81600160009054906101000a900473ffffffffffffffffffffffffffffffffffffffff1673ffffffffffffffffffffffffffffffffffffffff166370a08231306000604051602001526040518263ffffffff167c0100000000000000000000000000000000000000000000000000000000028152600401808273ffffffffffffffffffffffffffffffffffffffff1673ffffffffffffffffffffffffffffffffffffffff168152602001915050602060405180830381600087803b15156106d957600080fd5b6102c65a03f115156106ea57600080fd5b505050604051805190501015151561070157600080fd5b7f1ebbc515a759c3fe8e048867aac7fe458e3a37ac3dd44ffc73a6238cf3003981826040518082815260200191505060405180910390a1600160009054906101000a900473ffffffffffffffffffffffffffffffffffffffff1673ffffffffffffffffffffffffffffffffffffffff1663a9059cbb6000809054906101000a900473ffffffffffffffffffffffffffffffffffffffff16846000604051602001526040518363ffffffff167c0100000000000000000000000000000000000000000000000000000000028152600401808373ffffffffffffffffffffffffffffffffffffffff1673ffffffffffffffffffffffffffffffffffffffff16815260200182815260200192505050602060405180830381600087803b151561082657600080fd5b6102c65a03f1151561083757600080fd5b505050604051805190509050919050565b60008060009054906101000a900473ffffffffffffffffffffffffffffffffffffffff1673ffffffffffffffffffffffffffffffffffffffff163373ffffffffffffffffffffffffffffffffffffffff161415156108a557600080fd5b813073ffffffffffffffffffffffffffffffffffffffff1631101515610959577f8a93d70d792b644d97d7da8a5798e03bbee85be4537a860a331dbe3ee50eb982826040518082815260200191505060405180910390a16000809054906101000a900473ffffffffffffffffffffffffffffffffffffffff1673ffffffffffffffffffffffffffffffffffffffff166108fc839081150290604051600060405180830381858888f19350505050905061095e565b600090505b919050565b600160009054906101000a900473ffffffffffffffffffffffffffffffffffffffff1681565b6000600160009054906101000a900473ffffffffffffffffffffffffffffffffffffffff1673ffffffffffffffffffffffffffffffffffffffff166370a08231306000604051602001526040518263ffffffff167c0100000000000000000000000000000000000000000000000000000000028152600401808273ffffffffffffffffffffffffffffffffffffffff1673ffffffffffffffffffffffffffffffffffffffff168152602001915050602060405180830381600087803b1515610a5057600080fd5b6102c65a03f11515610a6157600080fd5b50505060405180519050905090565b60025481565b600460009054906101000a900460ff1681565b6000809054906101000a900473ffffffffffffffffffffffffffffffffffffffff1681565b60035481565b60008060009054906101000a900473ffffffffffffffffffffffffffffffffffffffff1673ffffffffffffffffffffffffffffffffffffffff163373ffffffffffffffffffffffffffffffffffffffff16141515610b1157600080fd5b7ffea8ae97829f3801e6ca15928428931c2a4f3cee1fa7c9b83d959efd246664228383604051808373ffffffffffffffffffffffffffffffffffffffff1673ffffffffffffffffffffffffffffffffffffffff1681526020018281526020019250505060405180910390a18273ffffffffffffffffffffffffffffffffffffffff1663a9059cbb6000809054906101000a900473ffffffffffffffffffffffffffffffffffffffff16846000604051602001526040518363ffffffff167c0100000000000000000000000000000000000000000000000000000000028152600401808373ffffffffffffffffffffffffffffffffffffffff1673ffffffffffffffffffffffffffffffffffffffff16815260200182815260200192505050602060405180830381600087803b1515610c4857600080fd5b6102c65a03f11515610c5957600080fd5b50505060405180519050905092915050565b6000809054906101000a900473ffffffffffffffffffffffffffffffffffffffff1673ffffffffffffffffffffffffffffffffffffffff163373ffffffffffffffffffffffffffffffffffffffff16141515610cc657600080fd5b80600460006101000a81548160ff0219169083151502179055507fce78b7525a161aee9986871a8dcad7e2783f9a4d66383783243cf14ec7086f85600460009054906101000a900460ff16604051808215151515815260200191505060405180910390a150565b60003073ffffffffffffffffffffffffffffffffffffffff1631905090565b6000809054906101000a900473ffffffffffffffffffffffffffffffffffffffff1673ffffffffffffffffffffffffffffffffffffffff163373ffffffffffffffffffffffffffffffffffffffff16141515610da757600080fd5b600073ffffffffffffffffffffffffffffffffffffffff168173ffffffffffffffffffffffffffffffffffffffff1614151515610de357600080fd5b8073ffffffffffffffffffffffffffffffffffffffff166000809054906101000a900473ffffffffffffffffffffffffffffffffffffffff1673ffffffffffffffffffffffffffffffffffffffff167f8be0079c531659141344cd1fd0a4f28419497f9722a3daafe3b4186f6b6457e060405160405180910390a3806000806101000a81548173ffffffffffffffffffffffffffffffffffffffff021916908373ffffffffffffffffffffffffffffffffffffffff160217905550505600a165627a7a72305820f1e88b3e28e77287954cb5eba88b724bc2cd992950fbb30bfacc6b232a05bb5b0029",
  "source": "pragma solidity ^0.4.18;\n\nimport \"../node_modules/zeppelin-solidity/contracts/ownership/Ownable.sol\";\nimport \"../node_modules/zeppelin-solidity/contracts/token/ERC20/StandardToken.sol\";\n\ncontract TokenSeller is Ownable {\n\n    address public asset;       //token to be traded\n    uint public sellPrice;      //price in ether of the token seller wants\n    uint public units;          //number of tokens on offer by seller\n\n    bool public sellsTokens;    //bool to check if the contract is selling tokens\n\n    event ActivatedEvent(bool sells);           //event trigger to show that a account sells\n    event MakerWithdrewAsset(uint256 tokens);   //event trigger when account withdraws a token asset\n//    event MakerTransferredAsset(address toTokenSeller, uint256 tokens); //event trigger when account transfers a token asset\n    event MakerWithdrewERC20Token(address tokenAddress, uint256 tokens); //event trigger when account withdraws an ERC20 compliant token asset\n    event MakerWithdrewEther(uint256 ethers);       //event for when seller account withdraws ether from transaction\n    event TakerBoughtAsset(address indexed buyer, uint256 ethersSent, uint256 ethersReturned, uint256 tokensBought);    //event for when buyer account purchases token asset\n\n    /** @dev Constructor Method\n     *       Constructor should only be called by the TokenSellerFactory contract\n     * @param _asset address address of token asset to be sold for ether\n     * @param     _sellPrice uint    Price sales price of lot \n     * @param         _units uint    size of lot \n     * @param   _sellsTokens bool    validate that TokenSeller contract has permission to sell from Factory\n     */\n    function TokenSeller(address _asset, uint _sellPrice, uint _units, bool _sellsTokens) public {\n        asset = _asset;\n        sellPrice = _sellPrice;\n        units = _units;\n        sellsTokens = _sellsTokens;\n        ActivatedEvent(sellsTokens);\n    }\n\n    /** @dev Activate/Deactivate contract sell status\n     *       Maker of the contract can control sell permission of the contract\n     * @param _sellsTokens bool permission variable\n     */\n    function activate(bool _sellsTokens) public onlyOwner {\n        sellsTokens = _sellsTokens;\n        ActivatedEvent(sellsTokens);\n    }\n\n    \n    /** @dev Withdraw tokens from contract\n     *       Owner can withdraw tokens deposited into contract.\n     * @param tokens uint amount of tokens to be withdrawn\n     * @return    ok bool withdrawel confirmation\n     */\n    function makerWithdrawTokens(uint256 tokens) public onlyOwner returns (bool ok) {\n        require(StandardToken(asset).balanceOf(this) >= tokens);\n        MakerWithdrewAsset(tokens);\n        return StandardToken(asset).transfer(owner, tokens);\n    }\n    \n    /** @dev Token balance of contract\n     * @return balance uint Shows the balance of tokens deposited in contract\n     */\n    function makerGetBalance() public view returns (uint balance) {\n        return StandardToken(asset).balanceOf(this);\n    }\n \n    /** @dev Return Tokens to Contract Maker\n     *       Used to return tokens accidentally sent for sale, that is, if the incorrect token type was sent.\n     *       Only permissable for contract owner to perform reversal\n     * @param tokenAddress address Address of token accidentally sent\n     * @param       amount    uint amount sent to be reversed\n     * @return     confirm    bool confirmation to ensure function executed\n     */\n    function makerWithdrawERC20Token(address tokenAddress, uint amount) public onlyOwner returns (bool confirm) {\n        MakerWithdrewERC20Token(tokenAddress, amount);\n        return StandardToken(tokenAddress).transfer(owner, amount);\n    }\n\n    /** @dev Withdraw Ether from Contract\n     *       Maker can withdraw ether sent to contract for trade. Only can be executed by contract owner.\n     *       Contract balance is checked to ensure sufficient ether is available for withdrawel.\n     * @param   amount uint ether amount to be withdrawn\n     * @return confirm bool transaction confirmation\n     */\n    function makerWithdrawEther(uint amount) public onlyOwner returns (bool confirm) {\n        \n        if (this.balance >= amount) {               //check contract balance\n            MakerWithdrewEther(amount);\n            return owner.send(amount);\n        }\n        return false;\n    }\n\n    /** @dev Show ether balance for contract\n     * @return ether uint shows ether held in smart contract\n     */\n    function getEtherBalance() public view returns (uint ethers) {\n        return this.balance;\n    }\n\n    /** @dev Taker Purchases Token\n     *       Tokens held in contract are purchased in ether. The contract is held and owned by the maker.\n     *       The taker pays ether to the contract in exchange for the deposited tokens\n     */\n    function takerBuyAsset() public payable {\n        if (sellsTokens || msg.sender == owner) {\n            // Note that sellPrice has already been validated as > 0\n            // Note that units has already been validated as > 0\n            require(msg.value == sellPrice);\n            uint can_sell = makerGetBalance();\n            //uint256 change = 0;\n            StandardToken(asset).transfer(msg.sender, can_sell);\n            units -= can_sell;\n            sellPrice -= msg.value;\n            TakerBoughtAsset(msg.sender, msg.value, units, sellPrice);\n\n        } else {\n        // Return user funds if the contract is not selling\n            require(msg.sender.send(msg.value));\n        }\n    }\n\n    /** Fallback function \n     */\n    function() payable public {\n        takerBuyAsset;\n    }\n\n}",
  "sourcePath": "/Users/michaelsanne/Documents/Hackathon/Project/UnlockTheBlock/oz-workspace/contracts/TokenSeller.sol",
  "compiler": {
    "name": "solc",
    "version": "0.4.18+commit.9cf6e910.Emscripten.clang"
  },
  "schemaVersion": "1.0.1",
  "updatedAt": "2018-02-01T05:49:03.873Z"
}