{
  "contractName": "TokenSellerFactory",
  "abi": [
    {
      "constant": true,
      "inputs": [],
      "name": "TOKEN_ADDRESS",
      "outputs": [
        {
          "name": "",
          "type": "address"
        }
      ],
      "payable": false,
      "stateMutability": "view",
      "type": "function"
    },
    {
      "constant": true,
      "inputs": [
        {
          "name": "",
          "type": "address"
        }
      ],
      "name": "_verify",
      "outputs": [
        {
          "name": "",
          "type": "bool"
        }
      ],
      "payable": false,
      "stateMutability": "view",
      "type": "function"
    },
    {
      "constant": false,
      "inputs": [
        {
          "name": "sellPrice",
          "type": "uint256"
        },
        {
          "name": "units",
          "type": "uint256"
        },
        {
          "name": "sellsTokens",
          "type": "bool"
        }
      ],
      "name": "createSaleContract",
      "outputs": [
        {
          "name": "seller",
          "type": "address"
        }
      ],
      "payable": false,
      "stateMutability": "nonpayable",
      "type": "function"
    },
    {
      "constant": false,
      "inputs": [
        {
          "name": "tokenAddress",
          "type": "address"
        },
        {
          "name": "tokens",
          "type": "uint256"
        }
      ],
      "name": "ownerWithdrawERC20Token",
      "outputs": [
        {
          "name": "ok",
          "type": "bool"
        }
      ],
      "payable": false,
      "stateMutability": "nonpayable",
      "type": "function"
    },
    {
      "constant": true,
      "inputs": [
        {
          "name": "tradeContract",
          "type": "address"
        }
      ],
      "name": "verify",
      "outputs": [
        {
          "name": "valid",
          "type": "bool"
        },
        {
          "name": "owner",
          "type": "address"
        },
        {
          "name": "asset",
          "type": "address"
        },
        {
          "name": "sellPrice",
          "type": "uint256"
        },
        {
          "name": "units",
          "type": "uint256"
        },
        {
          "name": "sellsTokens",
          "type": "bool"
        }
      ],
      "payable": false,
      "stateMutability": "view",
      "type": "function"
    },
    {
      "constant": true,
      "inputs": [],
      "name": "owner",
      "outputs": [
        {
          "name": "",
          "type": "address"
        }
      ],
      "payable": false,
      "stateMutability": "view",
      "type": "function"
    },
    {
      "constant": false,
      "inputs": [
        {
          "name": "newOwner",
          "type": "address"
        }
      ],
      "name": "transferOwnership",
      "outputs": [],
      "payable": false,
      "stateMutability": "nonpayable",
      "type": "function"
    },
    {
      "inputs": [
        {
          "name": "_tokenAddress",
          "type": "address"
        }
      ],
      "payable": false,
      "stateMutability": "nonpayable",
      "type": "constructor"
    },
    {
      "payable": false,
      "stateMutability": "nonpayable",
      "type": "fallback"
    },
    {
      "anonymous": false,
      "inputs": [
        {
          "indexed": true,
          "name": "ownerAddress",
          "type": "address"
        },
        {
          "indexed": true,
          "name": "tokenSellerAddress",
          "type": "address"
        },
        {
          "indexed": true,
          "name": "asset",
          "type": "address"
        },
        {
          "indexed": false,
          "name": "sellPrice",
          "type": "uint256"
        },
        {
          "indexed": false,
          "name": "units",
          "type": "uint256"
        },
        {
          "indexed": false,
          "name": "sellsTokens",
          "type": "bool"
        }
      ],
      "name": "TradeListing",
      "type": "event"
    },
    {
      "anonymous": false,
      "inputs": [
        {
          "indexed": true,
          "name": "tokenAddress",
          "type": "address"
        },
        {
          "indexed": false,
          "name": "tokens",
          "type": "uint256"
        }
      ],
      "name": "OwnerWithdrewERC20Token",
      "type": "event"
    },
    {
      "anonymous": false,
      "inputs": [
        {
          "indexed": true,
          "name": "previousOwner",
          "type": "address"
        },
        {
          "indexed": true,
          "name": "newOwner",
          "type": "address"
        }
      ],
      "name": "OwnershipTransferred",
      "type": "event"
    }
  ],
  "bytecode": "0x6060604052341561000f57600080fd5b604051602080611d8683398101604052808051906020019091905050336000806101000a81548173ffffffffffffffffffffffffffffffffffffffff021916908373ffffffffffffffffffffffffffffffffffffffff16021790555060008173ffffffffffffffffffffffffffffffffffffffff161415151561009157600080fd5b80600160006101000a81548173ffffffffffffffffffffffffffffffffffffffff021916908373ffffffffffffffffffffffffffffffffffffffff16021790555050611ca4806100e26000396000f300606060405260043610610083576000357c0100000000000000000000000000000000000000000000000000000000900463ffffffff1680630bdf53001461009357806349dbf0b3146100e85780635917b5a8146101395780635de01497146101b057806363a9c3d71461020a5780638da5cb5b146102da578063f2fde38b1461032f575b341561008e57600080fd5b600080fd5b341561009e57600080fd5b6100a6610368565b604051808273ffffffffffffffffffffffffffffffffffffffff1673ffffffffffffffffffffffffffffffffffffffff16815260200191505060405180910390f35b34156100f357600080fd5b61011f600480803573ffffffffffffffffffffffffffffffffffffffff1690602001909190505061038e565b604051808215151515815260200191505060405180910390f35b341561014457600080fd5b61016e600480803590602001909190803590602001909190803515159060200190919050506103ae565b604051808273ffffffffffffffffffffffffffffffffffffffff1673ffffffffffffffffffffffffffffffffffffffff16815260200191505060405180910390f35b34156101bb57600080fd5b6101f0600480803573ffffffffffffffffffffffffffffffffffffffff16906020019091908035906020019091905050610620565b604051808215151515815260200191505060405180910390f35b341561021557600080fd5b610241600480803573ffffffffffffffffffffffffffffffffffffffff169060200190919050506107ba565b60405180871515151581526020018673ffffffffffffffffffffffffffffffffffffffff1673ffffffffffffffffffffffffffffffffffffffff1681526020018573ffffffffffffffffffffffffffffffffffffffff1673ffffffffffffffffffffffffffffffffffffffff16815260200184815260200183815260200182151515158152602001965050505050505060405180910390f35b34156102e557600080fd5b6102ed610ad5565b604051808273ffffffffffffffffffffffffffffffffffffffff1673ffffffffffffffffffffffffffffffffffffffff16815260200191505060405180910390f35b341561033a57600080fd5b610366600480803573ffffffffffffffffffffffffffffffffffffffff16906020019091905050610afa565b005b600160009054906101000a900473ffffffffffffffffffffffffffffffffffffffff1681565b60026020528060005260406000206000915054906101000a900460ff1681565b60008084101580156103c1575060008310155b15156103cc57600080fd5b600160009054906101000a900473ffffffffffffffffffffffffffffffffffffffff168484846103fa610c4f565b808573ffffffffffffffffffffffffffffffffffffffff1673ffffffffffffffffffffffffffffffffffffffff16815260200184815260200183815260200182151515158152602001945050505050604051809103906000f080151561045f57600080fd5b90506001600260008373ffffffffffffffffffffffffffffffffffffffff1673ffffffffffffffffffffffffffffffffffffffff16815260200190815260200160002060006101000a81548160ff0219169083151502179055508073ffffffffffffffffffffffffffffffffffffffff1663f2fde38b336040518263ffffffff167c0100000000000000000000000000000000000000000000000000000000028152600401808273ffffffffffffffffffffffffffffffffffffffff1673ffffffffffffffffffffffffffffffffffffffff168152602001915050600060405180830381600087803b151561055357600080fd5b6102c65a03f1151561056457600080fd5b505050600160009054906101000a900473ffffffffffffffffffffffffffffffffffffffff1673ffffffffffffffffffffffffffffffffffffffff168173ffffffffffffffffffffffffffffffffffffffff163373ffffffffffffffffffffffffffffffffffffffff167f95883871899e33394289953f74bb83c1b73d35af75cbff5548be3a0d6c52b3b58787876040518084815260200183815260200182151515158152602001935050505060405180910390a49392505050565b60008060009054906101000a900473ffffffffffffffffffffffffffffffffffffffff1673ffffffffffffffffffffffffffffffffffffffff163373ffffffffffffffffffffffffffffffffffffffff1614151561067d57600080fd5b8273ffffffffffffffffffffffffffffffffffffffff167f168656e1968a1165ef7fd3f1006847fcfba4cac97672bc70ccbcffb66bc080ba836040518082815260200191505060405180910390a28273ffffffffffffffffffffffffffffffffffffffff1663a9059cbb6000809054906101000a900473ffffffffffffffffffffffffffffffffffffffff16846000604051602001526040518363ffffffff167c0100000000000000000000000000000000000000000000000000000000028152600401808373ffffffffffffffffffffffffffffffffffffffff1673ffffffffffffffffffffffffffffffffffffffff16815260200182815260200192505050602060405180830381600087803b151561079757600080fd5b6102c65a03f115156107a857600080fd5b50505060405180519050905092915050565b6000806000806000806000600260008973ffffffffffffffffffffffffffffffffffffffff1673ffffffffffffffffffffffffffffffffffffffff16815260200190815260200160002060009054906101000a900460ff1696508615610acb578790508073ffffffffffffffffffffffffffffffffffffffff16638da5cb5b6000604051602001526040518163ffffffff167c0100000000000000000000000000000000000000000000000000000000028152600401602060405180830381600087803b151561088957600080fd5b6102c65a03f1151561089a57600080fd5b5050506040518051905095508073ffffffffffffffffffffffffffffffffffffffff166338d52e0f6000604051602001526040518163ffffffff167c0100000000000000000000000000000000000000000000000000000000028152600401602060405180830381600087803b151561091257600080fd5b6102c65a03f1151561092357600080fd5b5050506040518051905094508073ffffffffffffffffffffffffffffffffffffffff16634b7503346000604051602001526040518163ffffffff167c0100000000000000000000000000000000000000000000000000000000028152600401602060405180830381600087803b151561099b57600080fd5b6102c65a03f115156109ac57600080fd5b5050506040518051905093508073ffffffffffffffffffffffffffffffffffffffff1663976a84356000604051602001526040518163ffffffff167c0100000000000000000000000000000000000000000000000000000000028152600401602060405180830381600087803b1515610a2457600080fd5b6102c65a03f11515610a3557600080fd5b5050506040518051905092508073ffffffffffffffffffffffffffffffffffffffff16634ca50f596000604051602001526040518163ffffffff167c0100000000000000000000000000000000000000000000000000000000028152600401602060405180830381600087803b1515610aad57600080fd5b6102c65a03f11515610abe57600080fd5b5050506040518051905091505b5091939550919395565b6000809054906101000a900473ffffffffffffffffffffffffffffffffffffffff1681565b6000809054906101000a900473ffffffffffffffffffffffffffffffffffffffff1673ffffffffffffffffffffffffffffffffffffffff163373ffffffffffffffffffffffffffffffffffffffff16141515610b5557600080fd5b600073ffffffffffffffffffffffffffffffffffffffff168173ffffffffffffffffffffffffffffffffffffffff1614151515610b9157600080fd5b8073ffffffffffffffffffffffffffffffffffffffff166000809054906101000a900473ffffffffffffffffffffffffffffffffffffffff1673ffffffffffffffffffffffffffffffffffffffff167f8be0079c531659141344cd1fd0a4f28419497f9722a3daafe3b4186f6b6457e060405160405180910390a3806000806101000a81548173ffffffffffffffffffffffffffffffffffffffff021916908373ffffffffffffffffffffffffffffffffffffffff16021790555050565b60405161101980610c608339019056006060604052341561000f57600080fd5b60405160808061101983398101604052808051906020019091908051906020019091908051906020019091908051906020019091905050336000806101000a81548173ffffffffffffffffffffffffffffffffffffffff021916908373ffffffffffffffffffffffffffffffffffffffff16021790555083600160006101000a81548173ffffffffffffffffffffffffffffffffffffffff021916908373ffffffffffffffffffffffffffffffffffffffff160217905550826002819055508160038190555080600460006101000a81548160ff0219169083151502179055507fce78b7525a161aee9986871a8dcad7e2783f9a4d66383783243cf14ec7086f85600460009054906101000a900460ff16604051808215151515815260200191505060405180910390a150505050610ecd8061014c6000396000f3006060604052600436106100c5576000357c0100000000000000000000000000000000000000000000000000000000900463ffffffff168063086fea13146100c75780632170ebf71461010257806338d52e0f1461013d578063455ffc09146101925780634b750334146101bb5780634ca50f59146101e45780638da5cb5b14610211578063976a843514610266578063c34764cf1461028f578063c60ccb0e146102e9578063ce5e84a3146102f3578063ea46193e14610318578063f2fde38b14610341575b005b34156100d257600080fd5b6100e860048080359060200190919050506105b6565b604051808215151515815260200191505060405180910390f35b341561010d57600080fd5b6101236004808035906020019091905050610848565b604051808215151515815260200191505060405180910390f35b341561014857600080fd5b610150610963565b604051808273ffffffffffffffffffffffffffffffffffffffff1673ffffffffffffffffffffffffffffffffffffffff16815260200191505060405180910390f35b341561019d57600080fd5b6101a5610989565b6040518082815260200191505060405180910390f35b34156101c657600080fd5b6101ce610a70565b6040518082815260200191505060405180910390f35b34156101ef57600080fd5b6101f7610a76565b604051808215151515815260200191505060405180910390f35b341561021c57600080fd5b610224610a89565b604051808273ffffffffffffffffffffffffffffffffffffffff1673ffffffffffffffffffffffffffffffffffffffff16815260200191505060405180910390f35b341561027157600080fd5b610279610aae565b6040518082815260200191505060405180910390f35b341561029a57600080fd5b6102cf600480803573ffffffffffffffffffffffffffffffffffffffff16906020019091908035906020019091905050610ab4565b604051808215151515815260200191505060405180910390f35b6102f161037a565b005b34156102fe57600080fd5b61031660048080351515906020019091905050610c6b565b005b341561032357600080fd5b61032b610d2d565b6040518082815260200191505060405180910390f35b341561034c57600080fd5b610378600480803573ffffffffffffffffffffffffffffffffffffffff16906020019091905050610d4c565b005b6000600460009054906101000a900460ff16806103e357506000809054906101000a900473ffffffffffffffffffffffffffffffffffffffff1673ffffffffffffffffffffffffffffffffffffffff163373ffffffffffffffffffffffffffffffffffffffff16145b1561057257600254341415156103f857600080fd5b610400610989565b9050600160009054906101000a900473ffffffffffffffffffffffffffffffffffffffff1673ffffffffffffffffffffffffffffffffffffffff1663a9059cbb33836000604051602001526040518363ffffffff167c0100000000000000000000000000000000000000000000000000000000028152600401808373ffffffffffffffffffffffffffffffffffffffff1673ffffffffffffffffffffffffffffffffffffffff16815260200182815260200192505050602060405180830381600087803b15156104cf57600080fd5b6102c65a03f115156104e057600080fd5b505050604051805190505080600360008282540392505081905550346002600082825403925050819055503373ffffffffffffffffffffffffffffffffffffffff167f37e948531341be0a8ce95c3833827c6f3559825cb6421e6ff1fe21c3a8b712173460035460025460405180848152602001838152602001828152602001935050505060405180910390a26105b3565b3373ffffffffffffffffffffffffffffffffffffffff166108fc349081150290604051600060405180830381858888f1935050505015156105b257600080fd5b5b50565b60008060009054906101000a900473ffffffffffffffffffffffffffffffffffffffff1673ffffffffffffffffffffffffffffffffffffffff163373ffffffffffffffffffffffffffffffffffffffff1614151561061357600080fd5b81600160009054906101000a900473ffffffffffffffffffffffffffffffffffffffff1673ffffffffffffffffffffffffffffffffffffffff166370a08231306000604051602001526040518263ffffffff167c0100000000000000000000000000000000000000000000000000000000028152600401808273ffffffffffffffffffffffffffffffffffffffff1673ffffffffffffffffffffffffffffffffffffffff168152602001915050602060405180830381600087803b15156106d957600080fd5b6102c65a03f115156106ea57600080fd5b505050604051805190501015151561070157600080fd5b7f1ebbc515a759c3fe8e048867aac7fe458e3a37ac3dd44ffc73a6238cf3003981826040518082815260200191505060405180910390a1600160009054906101000a900473ffffffffffffffffffffffffffffffffffffffff1673ffffffffffffffffffffffffffffffffffffffff1663a9059cbb6000809054906101000a900473ffffffffffffffffffffffffffffffffffffffff16846000604051602001526040518363ffffffff167c0100000000000000000000000000000000000000000000000000000000028152600401808373ffffffffffffffffffffffffffffffffffffffff1673ffffffffffffffffffffffffffffffffffffffff16815260200182815260200192505050602060405180830381600087803b151561082657600080fd5b6102c65a03f1151561083757600080fd5b505050604051805190509050919050565b60008060009054906101000a900473ffffffffffffffffffffffffffffffffffffffff1673ffffffffffffffffffffffffffffffffffffffff163373ffffffffffffffffffffffffffffffffffffffff161415156108a557600080fd5b813073ffffffffffffffffffffffffffffffffffffffff1631101515610959577f8a93d70d792b644d97d7da8a5798e03bbee85be4537a860a331dbe3ee50eb982826040518082815260200191505060405180910390a16000809054906101000a900473ffffffffffffffffffffffffffffffffffffffff1673ffffffffffffffffffffffffffffffffffffffff166108fc839081150290604051600060405180830381858888f19350505050905061095e565b600090505b919050565b600160009054906101000a900473ffffffffffffffffffffffffffffffffffffffff1681565b6000600160009054906101000a900473ffffffffffffffffffffffffffffffffffffffff1673ffffffffffffffffffffffffffffffffffffffff166370a08231306000604051602001526040518263ffffffff167c0100000000000000000000000000000000000000000000000000000000028152600401808273ffffffffffffffffffffffffffffffffffffffff1673ffffffffffffffffffffffffffffffffffffffff168152602001915050602060405180830381600087803b1515610a5057600080fd5b6102c65a03f11515610a6157600080fd5b50505060405180519050905090565b60025481565b600460009054906101000a900460ff1681565b6000809054906101000a900473ffffffffffffffffffffffffffffffffffffffff1681565b60035481565b60008060009054906101000a900473ffffffffffffffffffffffffffffffffffffffff1673ffffffffffffffffffffffffffffffffffffffff163373ffffffffffffffffffffffffffffffffffffffff16141515610b1157600080fd5b7ffea8ae97829f3801e6ca15928428931c2a4f3cee1fa7c9b83d959efd246664228383604051808373ffffffffffffffffffffffffffffffffffffffff1673ffffffffffffffffffffffffffffffffffffffff1681526020018281526020019250505060405180910390a18273ffffffffffffffffffffffffffffffffffffffff1663a9059cbb6000809054906101000a900473ffffffffffffffffffffffffffffffffffffffff16846000604051602001526040518363ffffffff167c0100000000000000000000000000000000000000000000000000000000028152600401808373ffffffffffffffffffffffffffffffffffffffff1673ffffffffffffffffffffffffffffffffffffffff16815260200182815260200192505050602060405180830381600087803b1515610c4857600080fd5b6102c65a03f11515610c5957600080fd5b50505060405180519050905092915050565b6000809054906101000a900473ffffffffffffffffffffffffffffffffffffffff1673ffffffffffffffffffffffffffffffffffffffff163373ffffffffffffffffffffffffffffffffffffffff16141515610cc657600080fd5b80600460006101000a81548160ff0219169083151502179055507fce78b7525a161aee9986871a8dcad7e2783f9a4d66383783243cf14ec7086f85600460009054906101000a900460ff16604051808215151515815260200191505060405180910390a150565b60003073ffffffffffffffffffffffffffffffffffffffff1631905090565b6000809054906101000a900473ffffffffffffffffffffffffffffffffffffffff1673ffffffffffffffffffffffffffffffffffffffff163373ffffffffffffffffffffffffffffffffffffffff16141515610da757600080fd5b600073ffffffffffffffffffffffffffffffffffffffff168173ffffffffffffffffffffffffffffffffffffffff1614151515610de357600080fd5b8073ffffffffffffffffffffffffffffffffffffffff166000809054906101000a900473ffffffffffffffffffffffffffffffffffffffff1673ffffffffffffffffffffffffffffffffffffffff167f8be0079c531659141344cd1fd0a4f28419497f9722a3daafe3b4186f6b6457e060405160405180910390a3806000806101000a81548173ffffffffffffffffffffffffffffffffffffffff021916908373ffffffffffffffffffffffffffffffffffffffff160217905550505600a165627a7a72305820f1e88b3e28e77287954cb5eba88b724bc2cd992950fbb30bfacc6b232a05bb5b0029a165627a7a72305820ee87dbc88f01102a3f81b63c9ed32ccf7301ba7fd0b3700a4bdf43cc2f3e82f40029",
  "source": "pragma solidity ^0.4.18;\n\n//import \"../node_modules/zeppelin-solidity/contracts/ownership/Ownable.sol\";\n//import \"zeppelin-solidity/contracts/token/ERC20/StandardToken.sol\";\nimport \"./TokenSeller.sol\";\n\ncontract TokenSellerFactory is Ownable {\n\n    event TradeListing(address indexed ownerAddress, address indexed tokenSellerAddress,address indexed asset, uint256 sellPrice, uint256 units, bool sellsTokens);\n    event OwnerWithdrewERC20Token(address indexed tokenAddress, uint256 tokens);\n    address public TOKEN_ADDRESS;\n    mapping (address => bool) public _verify;      //mapping to verify address has a smart contract made by factory\n    \n    /** @dev Constructor method\n     *  @param _tokenAddress address Address of the token to be generated for contracts \n     */\n    function TokenSellerFactory(address _tokenAddress) public {\n        require(_tokenAddress != 0x0);\n        TOKEN_ADDRESS = _tokenAddress;\n    }\n    /** @dev Verify Token Seller Contracts\n     *       Function is called to verify the parameters of a deployed TokenSeller contract\n     * @param  tradeContract address of contract to be verified\n     * @return         valid    bool did this TokenTraderFactory create the TokenTrader contract?\n     * @return         owner address is the owner of the TokenTrader contract\n     * @return         asset address is the ERC20 asset address\n     * @return     sellPrice    uint is the sell price in ethers per `units` of asset tokens\n     * @return         units    uint is the number of units of asset tokens\n     * @return   sellsTokens    bool is the TokenTrader contract selling tokens? \n     */\n    function verify(address tradeContract) public view returns (bool valid, address owner, address asset, uint sellPrice, uint units, bool sellsTokens) {\n        valid = _verify[tradeContract];\n        if (valid) {\n            TokenSeller t = TokenSeller(tradeContract);\n            owner = t.owner();\n            asset = t.asset();\n            sellPrice = t.sellPrice();\n            units = t.units();\n            sellsTokens = t.sellsTokens();\n        }\n    }\n\n    /** @dev Create TokenSeller contract\n     *       Generates seller smart contracts for use of token sell orders.\n     *       For example, listing a TokenSeller contract on the network where the \n     *       contract will sell H20 100 tokens at a rate of 0.1 ETH per H20 token:\n     *              token address   0xa74476443119a942de498590fe1f2454d7d4ac0d\n     *              sellPrice       10 ETH\n     *              units           100\n     *              sellsTokens     true\n     * @param   sellPrice uint price of lot for sale\n     * @param       units uint size of a lot\n     * @param sellsTokens bool check if the contract has permission to sell\n     */\n    function createSaleContract(uint sellPrice, uint units, bool sellsTokens) public returns (address seller) {\n        require(sellPrice >= 0 && units >= 0);\n        //require(units >= 0);\n        seller = new TokenSeller(TOKEN_ADDRESS, sellPrice, units, sellsTokens);\n        _verify[seller] = true;\n        TokenSeller(seller).transferOwnership(msg.sender);\n        TradeListing(msg.sender, seller, TOKEN_ADDRESS, sellPrice, units, sellsTokens);\n    }\n\n    /** @dev Withdraw any ECR20 token from factory \n     *       Mainly used for erroneuos transaction sent to the factory\n     * @param  tokenAddress address Address of token sent in error to contract\n     * @param        tokens uint    Amount of tokens to be refunded\n     * @return           ok bool    Refund confirmed\n     */\n    function ownerWithdrawERC20Token(address tokenAddress, uint256 tokens) public onlyOwner returns (bool ok) {\n        OwnerWithdrewERC20Token(tokenAddress, tokens);\n        return StandardToken(tokenAddress).transfer(owner, tokens);\n    }\n\n\n    function () public {\n        revert();\n    }\n}\n\n",
  "sourcePath": "/Users/michaelsanne/Documents/Hackathon/Project/UnlockTheBlock/oz-workspace/contracts/TokenSellerFactory.sol",
  "compiler": {
    "name": "solc",
    "version": "0.4.18+commit.9cf6e910.Emscripten.clang"
  },
  "schemaVersion": "1.0.1",
  "updatedAt": "2018-02-01T05:49:03.868Z"
}