{
  "contractName": "Utilities",
  "abi": [
    {
      "constant": true,
      "inputs": [
        {
          "name": "addr",
          "type": "address"
        }
      ],
      "name": "isContract",
      "outputs": [
        {
          "name": "",
          "type": "bool"
        }
      ],
      "payable": false,
      "stateMutability": "view",
      "type": "function"
    }
  ],
  "bytecode": "0x6060604052341561000f57600080fd5b60d18061001d6000396000f300606060405260043610603f576000357c0100000000000000000000000000000000000000000000000000000000900463ffffffff16806316279055146044575b600080fd5b3415604e57600080fd5b6078600480803573ffffffffffffffffffffffffffffffffffffffff169060200190919050506092565b604051808215151515815260200191505060405180910390f35b600080823b9050600081119150509190505600a165627a7a72305820e3f5d0fb16f0bc4e36f1d4bf24ceb0eae49d19f020285ea6fdf877beb1bec3a80029",
  "source": "pragma solidity ^0.4.18;\n\ncontract Utilities {\n\n    //merchant, refugee, transaction description mappings may be added here\n    //if mappings are added here then maybe some management functions may be added\n\n    function isContract(address addr) public view returns (bool) {\n        uint size;\n        assembly { size := extcodesize(addr) }\n        return size > 0;\n    }\n\n\n\n    //may add public key generation code in the future\n}\n",
  "sourcePath": "/home/fadzi/hackathon/contracts/Utilities.sol",
  "compiler": {
    "name": "solc",
    "version": "0.4.18+commit.9cf6e910.Emscripten.clang"
  },
  "schemaVersion": "1.0.1",
  "updatedAt": "2018-01-31T10:05:13.693Z"
}